:020000040800F2
:10000000580E00204901000859180008511800082E
:100010005518000825140008AF2300080000000050
:10002000000000000000000000000000191D000892
:100030005316000800000000011C00082D1E0008D7
:100040006301000863010008630100086301000800
:1000500063010008630100086301000863010008F0
:100060006301000863010008630100082914000807
:1000700063010008630100086301000863010008D0
:1000800063010008630100086301000863010008C0
:1000900063010008630100086301000863010008B0
:1000A00063010008630100086301000863010008A0
:1000B0006301000863010008630100086301000890
:1000C0006301000863010008630100086301000880
:1000D00063010008ED2000086301000863010008C7
:1000E0006301000863010008630100086301000860
:1000F0006301000863010008630100086301000850
:10010000630100086301000863010008630100083F
:10011000630100086301000863010008630100082F
:10012000630100086301000863010008630100081F
:10013000DFF810D000F038FF004800478531000894
:10014000AFF30080580E002006488047064800475D
:10015000FEE7FEE7FEE7FEE7FEE7FEE7FEE7FEE777
:10016000FEE7FEE76D1E0008310100082DE9F04FA3
:100170004FF0000C4FF0000301EB1C6EBEF9025073
:10018000BEF900400EF5807EBEF90290BEF90080F7
:100190000EF5807EBEF90270BEF900600EF5807E1D
:1001A000BEF902B0BEF900A00EF5807ED044D9445D
:1001B000A8EB4A0AA9EB4B0B4FEAA4044FEAA505AA
:1001C00004EBA60405EBA705A4EB6606A5EB670701
:1001D00004EBA80405EBA905A4EB6808A5EB6909E5
:1001E00006EBAB06A7EBAA07A6EB6B0B07EB6A0ABD
:1001F000458020F8044B478020F8046BA0F802905B
:1002000020F8048BA0F802A020F804BB03F101033E
:1002100093FAA3FC402BAFD1A0EB82014FF0100367
:1002200012090FF2361000F1000006B403EB430C84
:100230006144A2F5803202EB8332B1F90250B1F988
:100240000040A1EB0301B0F902B0B0F900A000F149
:100250000400A5EB040E0EFB0BFC0AEB4B0E05FB9A
:100260000ACB04FB0ECAB1F90250B1F90040A1EB70
:100270000301B0F90290B0F9008000F10400A5EB91
:10028000040E0EFB09FC08EB490E05FB08C904FB34
:100290000EC8B1F90250B1F90040A1EB0301B0F969
:1002A0000270B0F9006000F10400A5EB040E0EFB33
:1002B00007FC06EB470E05FB06C704FB0EC6B1F9AB
:1002C0000250B1F9004001F10001D044D944A8EB3B
:1002D0004A0AA9EB4B0B4FEAA4044FEAA50504EB2D
:1002E000264405EB2745A4EBE636A5EBE73704EB00
:1002F000284405EB2945A4EBE838A5EBE93906EBE2
:100300002B46A7EB2A47A6EBEB3B07EBEA3A4D80DF
:100310000C8019444F800E801944A1F80290A1F876
:1003200000801944A1F802A021F804BBB2F5803284
:1003300083DA03EB430C6144A2F101025FEA024E4F
:1003400018BFA0EB0C007FF476AF06BC4FEA830326
:1003500092087FF46AAFBDE8F08F004000000040D3
:100360000000004000005DDD213BA3227E1800005C
:10037000412D7EA5412D0000412D00C000405DDDD6
:1003800082E75DDD213B7EA5412D0040000000405D
:10039000000000400000AA2A94126B394606493238
:1003A0007C0CA8118E2349327C0CA3227E1821F7E5
:1003B0007931AA2A9412A8118E235DDD213BA32254
:1003C0007E180000412D95C6B13F461A2B1E58EEEF
:1003D0003735BEB4C53EA8118E235DDD213B63A930
:1003E0007138DF089A28B7CDC53E7EA5412D0000A3
:1003F000412D00C0004063A92B1E21F77931BEB406
:10040000C53EBEB47C0C58EE373561AC213B95C679
:10041000BAF9BAE571383BA737355DDD82E75DDDB6
:10042000213B7EA5412D21F766D756D53F3D3BA701
:100430008E23A811C9CAB7CDC53E61AC7E18AA2AC1
:10044000C1C295C6B13FBEB47C0C00400000004064
:100450000000004000001E3BB504693E9201C83C0C
:100460002403EB356409C83C24036B3946066C3021
:10047000060E1E3BB504EB356409AA2A94126B39AB
:10048000460649327C0CAE240917AF37D607882EB2
:100490008D0F7E1E5D1BEB356409AA2A9412241869
:1004A0008C1F1E34F10AB3269015A8118E234932F1
:1004B0007C0CA3227E18140B60276C30060E7E1E67
:1004C0005D1B7104FB2A882E8D0F461A2B1EC7FD5B
:1004D0005A2E9D2C1211FE15E72021F77931AA2AF8
:1004E0009412A8118E2387F05334B2281314480DA8
:1004F000202602EAE536B3269015DF089A289CE309
:100500002B39AE2409177104FB2A5DDD213BA322A0
:100510007E180000412D4ED7C53C9320EF198FFB6C
:100520006C2F78D1153E7E1E5D1B21F77931E2CB11
:100530000F3F641CC61CB8F2683395C6B13F461A1B
:100540002B1E58EE373597C1FB3F24188C1F02EA4B
:10055000E536F0BCEC3FFE15E720BAE57138A6B8E9
:10056000853FD5133D2282E1DB39BEB4C53EA811DB
:100570008E235DDD213B40B1AF3D790FDA244DD9AB
:10058000423C2EAE423C480D202656D53F3D8EAB18
:10059000823A140B602778D1153E63A97138DF08C1
:1005A0009A28B7CDC53EB1A71236A906CE2915CADD
:1005B0004F3F78A668337104FB2A95C6B13FBCA5AE
:1005C00076303902212C38C3EC3F7EA5412D000046
:1005D000412D00C00040BCA5CE29C7FD5A2EF0BC5D
:1005E000EC3F78A620268FFB6C2F09BAB13FB1A74C
:1005F0003D2257F976304DB74F3F63A92B1E21F7A7
:100600007931BEB4C53E8EABEF19ECF474325EB2F4
:10061000153E2EAE9015B8F268332DB03F3D40B177
:10062000121187F053342EAE423CBEB47C0C58EE0F
:10063000373561AC213BA6B8D6072BEC1236C8AAD9
:10064000DB39F0BC240302EAE53663A9713897C1AF
:100650006EFEDCE7B03734A8E53695C6BAF9BAE5E0
:1006600071383BA73735E2CB0FF59CE32B3978A6E1
:10067000683378D173F082E1DB39EDA579314ED75B
:10068000EDEB6DDF823A99A56C2F5DDD82E75DDDD4
:10069000213B7EA5412D9CE33AE352DBB63B99A575
:1006A000FB2A02EA19DF4DD9423CEDA59A2887F0D2
:1006B00026DB4ED7C53C78A6202621F766D756D52F
:1006C0003F3D3BA78E23C7FDDFD363D3AF3D34A8A7
:1006D000E720710494D078D1153E63A92B1E140B2A
:1006E0008CCD94CF723EC8AA5D1BA811C9CAB7CDE4
:1006F000C53E61AC7E18241850C8E2CB0F3F2EAE29
:1007000090157E1E25C615CA4F3F2DB09412AE24FB
:100710004AC451C8853F5EB28D0FAA2AC1C295C690
:10072000B13FBEB47C0C6C308EC1E2C4D43F4DB737
:100730006409EB35B1C038C3EC3F09BA46061E3B2D
:100740002CC097C1FB3FF0BC2403F0B480EA010247
:10075000D40F4200B2EB410F02D2024608461146C6
:100760004A0042D0C30DDDB2C1F3C752AD1A202DED
:1007700035DAC1F3160141F4000204B15242C5F169
:10078000200602FA06F12A411044B3EBD05F23D0D1
:10079000C4B1012DA0EBC35009DCF0BC4FF0004206
:1007A00002EAC352DBB200F5000000F049BA400093
:1007B00000F1807000EBC350A0F1807040EAD1706E
:1007C000490009E0490841EAC071A0EBC35000F5B7
:1007D0000000400800EBC350F0BC00F028BA6142B2
:1007E000012202EB4101001BF6E7F0BC704781F0EB
:1007F0000041AAE780F00040A7E780EA010210B5B7
:1008000002F00043400022D04A001FD0010E01EB4D
:100810001261C0F35600C2F3560240F4000042F4E5
:100820000002A0FB022000047F39140400D0401C09
:1008300050EA124001D44000491EC2B20C0604EB3B
:10084000D010401C4008802A02D003E0002010BDD8
:1008500020F00100002900DA0020184310BD30B458
:1008600080EA010202F0004530F0004221F0004031
:1008700013D090B1C30DD40DC2F31601C0F316000E
:10088000E41A41F4000140F400027D34914201D3A6
:10089000641C00E04900002C02DA30BC00207047E4
:1008A0004FF400000023914201D3891A034340080A
:1008B0004FEA4101F7D151B1914202D14FF00041CD
:1008C00005E002D24FF0010101E06FF0010103EBFE
:1008D000C450284430BC00F0AAB92DE9FE4F81EA8B
:1008E000030404F0004421F0004100944FF0000B99
:1008F00023F0004350EA01045ED052EA03045BD0C7
:10090000C3F30A54C1F30A552C44A4F2F3340194FE
:10091000A0FB0254C1F3130141F48011C3F313038C
:1009200043F4801301FB024400FB034E840A970A40
:1009300044EA815447EA8357A4FB076802958D0A6D
:1009400005FB07854FEA932C04FB0C542705029DF9
:100950004FEA065847EA1637B5EB08056EEB070C69
:10096000870E920E47EA811742EA8312A7FB020123
:10097000B6EB0B0164EB00042B0D43EA0C335E185D
:1009800044EB1C50DA465146E7FB0201C5F3130461
:100990004FEA0B3343EA14534FEA0432019C43EA13
:1009A0000603A4F10C040294009CCDE900B400F00D
:1009B00084F903B0BDE8F08F00200146F9E72DE986
:1009C000F04D81EA030404F0004B21F00045144689
:1009D0004FF0000A23F0004150EA050220D054EA0B
:1009E00001021DD0C5F30A570246C5F31303C1F334
:1009F0001300C1F30A5640F4801543F48013A7EBAB
:100A00000608101BD64608F2FD3873EB050002D32A
:100A100008F1010801E092185B41B8F1000F03DA18
:100A200000200146BDE8F08D00204FF480110646FD
:100A300084460EE0171B73EB050705D3121B63EB0F
:100A4000050306434CEA010C49084FEA30009218AE
:100A50005B4150EA0107EDD152EA030012D082EA6D
:100A6000040083EA0501084305D0101BAB4106D200
:100A70000122002306E000224FF0004302E06FF065
:100A8000010253101AEB06004CEB085110EB0A0060
:100A900041EB0B01BDE8F04D00F000B9C10F80EA59
:100AA000E0700844CA079623002100F0C9B80EB5CB
:100AB00040F2334102910021CDE900110A460B4674
:100AC00000F0FBF803B000BD20F00040C10DC0F302
:100AD000160040F400007F2901DA002070479629B3
:100AE00003DCC1F19601C8407047963988407047D1
:100AF000C1F30A5210B5C1F3130140F2FF3341F4C0
:100B000080119A4201DA002010BD40F233439A422C
:100B1000A2F2334203DC524200F079F810BD90405B
:100B200010BD00F0004230F000400AD0C10D01F5C8
:100B30006071C0F3160042EA0151C2084007114338
:100B4000704700200146704701F0004330B421F0A7
:100B5000004150EA010206D00A0DA2F56072C1F30D
:100B60001301002A02DC30BC00207047440F44EA25
:100B7000C104C100E01830BC00EBC25000F057B80F
:100B800030B50B46014600202022012409E021FA5D
:100B900002F59D4205D303FA02F5491B04FA02F55A
:100BA0002844151EA2F10102F1DC30BD2DE9F05FF1
:100BB0000546002092469B468846064681464024CC
:100BC0001BE0284641464746224600F020F853469F
:100BD0005A46C01A914110D311461846224600F0D9
:100BE000F5F92D1A67EB01084F4622460120002136
:100BF00000F0ECF917EB00094E41201EA4F10104AE
:100C0000DFDC484631462A464346BDE8F09F202AAD
:100C100004DB203A21FA02F00021704721FA02F3A6
:100C2000D040C2F120029140084319467047002984
:100C3000A8BF7047401C490008BF20F00100704762
:100C400010B4B0FA80FC00FA0CF050EA010404BFC2
:100C500010BC704749B1CCF1200421FA04F411FA18
:100C60000CF118BF012121430843A3EB0C01CB1D5C
:100C70004FEA00614FEA102042BF002010BC7047CD
:100C800000EBC35010440029A4BF10BC7047401CA7
:100C9000490008BF20F0010010BC704710B5141EB9
:100CA00073F1000408DA401C41F1000192185B4125
:100CB0001A4301D120F0010010BD2DE9F04D9246FC
:100CC0009B4611B1B1FA81F202E0B0FA80F2203213
:100CD000904600F07BF904460F4640EA0A0041EADC
:100CE0000B0153465A46084313D0114653EA0100FC
:100CF00019D0C8F140025046FFF789FF05460E465D
:100D000050465946424600F061F9084305D001209B
:100D100004E020463946BDE8F08D0020054346EA50
:100D2000E0762C4337430A986305E40AA0EB0800F9
:100D30000022FD0A44EA47540A3002D50020014649
:100D4000E9E7010510196941DDE908450019694124
:100D5000BDE8F04DA2E72DE9FE4F804681EA030091
:100D6000C00F0C46009021F0004123F00045B8EB85
:100D70000200A94105D24046214690461C460B463A
:100D8000024623F00040104347D0270DC7F30A0066
:100D9000C3F30A510290401A019040286BDAC3F362
:100DA000130040F4801B0098924620B10023D2EB40
:100DB000030A63EB0B0B01985946C0F14002504601
:100DC00000F004F906460D4650465946019A00F0D7
:100DD0000CF910EB08006141002487EA115284EA03
:100DE000E7731A4340D0009A62B3019A012A4FEA8E
:100DF000075215DC001B61EB02014FF0004202EAD2
:100E00000752CDE90042001C41F5801132462B46C5
:100E1000FFF753FF03B0BDE8F08F40462146F9E7E6
:100E2000001B61EB0201001C41F5801300185B41BF
:100E30002018A2F5001747EB030140EAD570B61958
:100E40006D4111E06D084FEA360645EAC0754FEA7C
:100E50000752001B61EB0201001C41F5801149089B
:100E60004FEA30000019514132462B4603B0BDE82D
:100E7000F04FFFF713BF0098012240000023D0EB92
:100E8000020263EBE073009821464FEAE074B8EB8E
:100E9000000061EB0401E9E783F000435BE781F0C8
:100EA000004158E72DE9F04D00231A461B1A8A41EC
:100EB00003DB00200146BDE8F08DC1F30A52C1F307
:100EC000130141F480154FF0000BD10702D1001837
:100ED0006D41521E0027044640F2FF11384601EBD7
:100EE000620A3E468046024600204FF48011FFF71A
:100EF0008EFEC2197141BB1846EB0100B4EB030C26
:100F000075EB000C04D3E41A65EB000517460E469A
:100F1000241908F101006D4180463428E3DDF919F8
:100F200046EB0600091BA84103D24FF0FF321346DF
:100F300001E0002213461BEB070046EB0A51BDE817
:100F4000F04DFFF7ABBEC1F30A52C1F3130140F2FB
:100F5000FF3341F480119A4202DA002001467047C3
:100F600040F233439A42A2F2334202DC5242FFF78C
:100F70004EBE00F02BB8000030B5041E71F1000425
:100F800004DB4FF00044404264EB0101141E73F196
:100F9000000405DB1C464FF00043524263EB0403A0
:100FA000994208BF904230BD064C074D06E0E0680C
:100FB00040F0010394E8070098471034AC42F6D3A0
:100FC000FFF7BAF8FC3A00081C3B0008202A04DBB3
:100FD000203A00FA02F1002070479140C2F120034C
:100FE00020FA03F3194390407047202A06DBCB1701
:100FF000203A41FA02F043EAE07306E041FA02F3D4
:10100000D040C2F1200291400843194670470000C9
:1010100008B50121042000F005FEF320ADF8000022
:1010200003208DF8020010208DF8030069460E4859
:1010300000F010FB01210D4800F097FB02210B4846
:1010400000F093FB4FF4045000F060F842F23800D7
:1010500000F05CF84FF4404000F058F84FF40450B2
:1010600000F054F808BD000000080140000C0140E9
:1010700010B5044680210B4800F079FB1021094887
:1010800000F075FB4021074800F071FB4021054846
:1010900000F06DFB4021034800F067FB204600F0A4
:1010A00035F810BD000801402DE9FC470646894689
:1010B0004846FFF7FCFC0746124A134BFFF70DFCAE
:1010C000CDE90001FFF714FD824654464FEA9A35F8
:1010D00046B924F4004444F4804425F4004545F422
:1010E000804507E024F4804444F4004425F480451E
:1010F00045F40045204600F009F8284600F006F8BF
:10110000BDE8FC87F8BA40D813A20C4070B504467D
:1011100000251021154800F02AFB8021134800F01B
:1011200024FB00BF16E004F4004020B120210F484A
:1011300000F01DFB03E020210C4800F016FB1021FD
:101140000A4800F012FB64001021084800F00FFB71
:10115000681CC5B2102DE6DB2021044800F007FB17
:101160008021024800F003FB70BD00000008014030
:1011700000B58DB00121084600F044FD4FF4C06079
:1011800000F0A4FB0B208DF8040000208DF8050072
:101190008DF8060001208DF8070001A800F05EFB25
:1011A000144800F089F91448029014480390002074
:1011B00004904FF4807005900020069080200790E6
:1011C000400008908000099020200A9000020B90B7
:1011D00000200C9002A9074800F01DFA0122062108
:1011E000044800F00FFA0121024800F059F90DB04F
:1011F00000BD0000080002404C24014052000020C5
:1012000000B587B00121480200F00CFD012110203B
:1012100000F008FD0220ADF8040000208DF8070062
:1012200001A91C4800F016FA002002908DF80C006D
:101230008DF80D000490059001208DF8180002A98A
:10124000154800F061F8002301220B21124800F03C
:1012500083F80121104800F021F801210E4800F028
:1012600033F801210C4800F024F80B4800F0D0F8C6
:1012700000BF094800F03DF80028FAD1064800F008
:10128000CCF800BF044800F02AF80028FAD107B0D3
:1012900000BD0000001001400024014021B182681F
:1012A00042F00102826003E0826822F00102826063
:1012B000704721B1826842F48072826003E08268E4
:1012C00022F480728260704721B1826842F48012F9
:1012D000826003E0826822F48012826070470146D7
:1012E00000208A6802F004020AB1012000E0002018
:1012F0007047014600208A6802F008020AB1012006
:1013000000E000207047000030B5024600200023B6
:1013100050680F4C20400D790C6844EA05242043A6
:10132000506090680B4C2040D1E902542C434D7919
:1013300044EA450420439060D06A20F470000C7C9D
:10134000641EE4B2234340EA0350D06230BD000083
:10135000FFFEF0FFFDF7F1FFF0B504460D4600205B
:101360000021092D11DDE068A5F10A0606EB46070C
:10137000072606FA07F18843A5F10A0606EB46069A
:1013800003FA06F10843E0600CE0206905EB45072D
:10139000072606FA07F1884305EB450603FA06F12E
:1013A00008432061072A0FDA606B561E06EB86079A
:1013B0001F2606FA07F18843561E06EB860605FA35
:1013C00006F10843606322E00D2A0FDA206BD61F76
:1013D00006EB86071F2606FA07F18843D61F06EBA1
:1013E000860605FA06F10843206310E0E06AA2F1E0
:1013F0000D0606EB86071F2606FA07F18843A2F1C1
:101400000D0606EB860605FA06F10843E062F0BD1C
:10141000816841F0080181607047816841F00401F2
:101420008160704700BFFEE710B50024002111481D
:1014300000F036F8042000F025F8022000F022F831
:1014400000BF08E00C4830F8140000040B4941F8D4
:101450002400601C84B2FF2CF4DD4FF48072074935
:101460000748FEF783FE00F085F90121014800F0EE
:1014700017F810BD0800024052000020540200205E
:101480005406002000F0805111B10349086001E0CA
:101490000249486070470000040402400000024016
:1014A00021B1026842F00102026004E002684FF6D6
:1014B000FE731A400260704701684FF6FE721140D9
:1014C00001600021016041608160C1604B49884238
:1014D00008D14A490839496841F00F01474A083A9A
:1014E00051608AE045491431884208D1434908399E
:1014F000496841F0F001414A083A51607DE03F49B6
:101500002831884208D13D490839496841F4706161
:101510003A4A083A516070E038493C31884208D173
:1015200036490839496841F47041344A083A5160F3
:1015300063E032495031884208D13049083949685E
:1015400041F470212D4A083A516056E02B4964312C
:10155000884208D129490839496841F47001274A6D
:10156000083A516049E025497831884208D1234939
:101570000839496841F07061204A083A51603CE0FE
:101580001F49884206D1011F096841F00F01021F5F
:10159000116032E01A491431884208D11849091FF4
:1015A000096841F0F001164A121F116025E0144944
:1015B0002831884208D11249091F096841F4706135
:1015C0000F4A121F116018E00D493C31884208D1C2
:1015D0000B49091F096841F47041094A121F116043
:1015E0000BE007495031884207D10549091F0968B6
:1015F00041F47021024A121F116070470800024036
:10160000080402401AB103680B43036002E0036858
:101610008B430360704710B50022026847F6F073F1
:101620009A430C6A8B6823430C6923434C69234318
:101630008C692343CC6923434C6A23438C6A23433C
:101640001A430260CB6843600B6883604B68C360D9
:1016500010BD70472DE9F04102460025002600200C
:1016600000230024002791F803C00CF00F0591F827
:1016700003C00CF0100CBCF1000F03D091F802C0B5
:101680004CEA050591F800C0BCF1000F31D0146898
:1016900000202BE04FF0010C0CFA00F3B1F800C071
:1016A0000CEA03069E4220D183004FF00F0C0CFA87
:1016B00003F7BC4305FA03FC4CEA040491F803C0A9
:1016C000BCF1280F06D14FF0010C0CFA00FCC2F857
:1016D00014C00AE091F803C0BCF1480F05D14FF0E7
:1016E000010C0CFA00FCC2F810C0401C0828D1D331
:1016F0001460B1F800C0BCF1FF0F34DD5468002065
:101700002EE000F1080C4FF0010808FA0CF3B1F8D4
:1017100000C00CEA03069E4221D183004FF00F0C5B
:101720000CFA03F7BC4305FA03FC4CEA040491F8F5
:1017300003C0BCF1280F05D100F1080C08FA0CF821
:10174000C2F8148091F803C0BCF1480F07D100F132
:10175000080C4FF0010808FA0CF8C2F81080401C81
:101760000828CED35460BDE8F08141617047016123
:10177000704700002DE9F04F89B000245DE031484A
:1017800030F824000FFA80F92E4850F824004FEA70
:10179000204A4846FFF782F980464FF08741FFF71D
:1017A0002CF807464FF08E41FFF759F80546504692
:1017B000FFF774F980464FF08741FFF71EF80746A0
:1017C0004FF08E41FFF74BF8064631463046FFF7A3
:1017D00014F8294602902846FFF70FF80190029965
:1017E000FEF7B3FF0390FFF79CF9CDE9040101F088
:1017F00053FD0022144BCDE90601FFF7E0F8074640
:10180000FFF7A2F983465CB94FF08E415846FEF7C8
:10181000F4FF0746FFF758F90C4941F824000AE0A5
:101820004FF08F415846FEF7E8FF0746FFF74CF9A7
:10183000064941F82400601C84B2802C9FDB09B06B
:10184000BDE8F08F540600200000704054080020CE
:1018500000BFFEE700BFFEE77047000070B5002143
:1018600000230F22C47804B3154C246804F4E06408
:10187000C4F5E064210AC1F10403CA40447804FAC3
:1018800003F184781440214309010E4C0678A155D8
:10189000047804F01F050124AC4005786D11AD00FB
:1018A00005F1E025C5F8004109E0047804F01F05C2
:1018B0000124AC40044D0678761145F8264070BDF1
:1018C0000CED00E000E400E080E100E002490143AB
:1018D000024A1160704700000000FA050CED00E0BC
:1018E00070B5002419E004F1B001C8B2002100F085
:1018F0004FF90021022000F04BF90021102000F0E8
:1019000047F9002505E00121002000F041F9681C9D
:10191000C5B2802DF7DB601CC4B2082CE3DB70BDC0
:1019200008B501214FF4947000F07CF94FF4FC707D
:10193000ADF8000010208DF8030003208DF80200A0
:1019400069465A48FFF786FE4FF4FC715748FFF787
:101950000EFF0320ADF8000069465548FFF77AFEF8
:1019600003215348FFF703FF4FF40040ADF8000098
:1019700069465048FFF76EFE4FF400414D48FFF7AF
:10198000F6FE10214948FFF7F2FE642001F0C2FB89
:1019900010214648FFF7E9FE642001F0BBFB10214F
:1019A0004248FFF7E4FE0021AE2000F0F1F80021EC
:1019B000022000F0EDF80021102000F0E9F80021ED
:1019C000402000F0E5F80021812000F0E1F800213E
:1019D000CF2000F0DDF80021A12000F0D9F800218F
:1019E000C82000F0D5F80021A62000F0D1F8002191
:1019F000A82000F0CDF800213F2000F0C9F8002118
:101A0000812000F0C5F80021FF2000F0C1F800217E
:101A1000D32000F0BDF80021084600F0B9F80021FD
:101A2000D52000F0B5F80021802000F0B1F80021A9
:101A3000D92000F0ADF80021F12000F0A9F8002134
:101A4000DA2000F0A5F80021122000F0A1F8002112
:101A5000DB2000F09DF80021402000F099F80021E3
:101A6000202000F095F80021022000F091F80021DC
:101A70008D2000F08DF80021142000F089F800215D
:101A8000A42000F085F80021A62000F081F80021B4
:101A9000AF2000F07DF80021AF2000F079F8FFF7CB
:101AA0001FFF0021084600F007F808BD00140140A0
:101AB000001001400020014070B504460D4605F1BC
:101AC000B001C8B2002100F063F8102141EA1410FF
:101AD000002100F05DF804F00F0141F00100002149
:101AE00000F056F870BD00002DE9F04107460E46A3
:101AF000904600250024A8F12000C5B27F2F02DD0A
:101B00000027B01CC6B231463846FFF7D5FF002487
:101B100008E004EB05110F4A505C012100F038F891
:101B2000601CC4B2082CF4DB701CC1B23846FFF74D
:101B3000C3FF002409E004EB05110831054A505C9D
:101B4000012100F025F8601CC4B2082CF3DBBDE8CD
:101B5000F08100000C3500082DE9F04104460F46E5
:101B6000154600260EE0AA5D39462046FFF7BCFF69
:101B700004F10800C4B2782C02DD0024B81CC7B2FE
:101B8000701CC6B2A85D0028EDD1BDE8F081000050
:101B900070B504460E4626B120211848FFF7E7FD30
:101BA00003E020211548FFF7E0FD08211348FFF767
:101BB000DCFD002517E040211048FFF7D6FD04F0BA
:101BC000800020B180210D48FFF7D1FD03E0802186
:101BD0000A48FFF7CAFD40210848FFF7C8FD600624
:101BE000040E681CC5B2082DE5DB08210348FFF789
:101BF000BEFD20210148FFF7BAFD70BD0014014071
:101C00007047000029B1064A52690243044B5A61E9
:101C100004E0034A52698243014B5A617047000055
:101C20000010024029B1064A92690243044B9A61AE
:101C300004E0034A92698243014B9A6170470000B5
:101C40000010024030B500210022002400232D4D59
:101C50006D6805F00C0121B1042905D0082923D1B4
:101C600005E0294D056022E0274D05601FE0254D68
:101C70006D6805F47012234D6D6805F480340225FB
:101C800005EB92421CB9214D554305600BE01D4DFB
:101C90006D6805F400351DB11C4D5543056002E02B
:101CA000194D5543056002E0174D056000BF00BFA8
:101CB000144D6D6805F0F0010909154D6B5C056860
:101CC000DD4045600F4D6D6805F4E061090A104D77
:101CD0006B5C4568DD4085600A4D6D6805F46051B8
:101CE000C90A0B4D6B5C4568DD40C560054D6D68EC
:101CF00005F44041890B074D6B5CC568B5FBF3F5F6
:101D0000056130BD0010024000127A0000093D005C
:101D10000800002018000020704710B500F002F8FD
:101D200010BD00000CB50020019000903348006801
:101D300040F480303149086000BF3048006800F44A
:101D4000003000900198401C0190009818B901984B
:101D5000B0F5A06FF1D12948006800F4003010B14F
:101D60000120009001E0002000900098012843D15C
:101D70002348006840F010002149086008460068C8
:101D800020F0030008600846006840F00200086088
:101D90001A48406819494860084640684860084643
:101DA000406840F4806048600846406820F47C1039
:101DB00048600846406840F4E810486008460068FB
:101DC00040F08070086000BF0C48006800F00070B0
:101DD0000028F9D00948406820F00300074948600E
:101DE0000846406840F00200486000BF0348406871
:101DF00000F00C000828F9D10CBD000000100240D2
:101E000000200240042808D14FF0E021096941F088
:101E100004014FF0E022116107E04FF0E021096971
:101E200021F004014FF0E02211617047704700007B
:101E300010B504466FF00400FFF7E4FFE11704EB70
:101E40005171C1F3C701074A11701046007800EBC9
:101E50004001C1EBC0104FF6FF7101EAC00002491A
:101E6000088010BD1C0000201E00002010B5134883
:101E7000006840F0010011490860084640681049B8
:101E800008400E494860084600680E4908400B4962
:101E900008600846006820F4802008600846406812
:101EA00020F4FE0048604FF41F008860FFF735FF04
:101EB0004FF000600449086010BD000000100240AF
:101EC0000000FFF8FFFFF6FE08ED00E000B589B066
:101ED0000121C802FFF7A6FE01210420FFF7A2FEA0
:101EE0004FF48070ADF8040003208DF80600182030
:101EF0008DF8070001A91948FFF7ACFB06A800F010
:101F0000EBF842F20F70ADF81C0040F2CF20ADF8B4
:101F100018000020ADF81E00ADF81A0006A9104800
:101F200000F088F86020ADF808000120ADF80A0044
:101F30004FF4FA50ADF80E000220ADF8100002A9DF
:101F4000074800F02BF80121054800F017F80021A0
:101F5000034800F007F809B000BD00000008014088
:101F6000002C014021B1028842F00102028004E00D
:101F700002884FF6FE731A400280704731B1B0F804
:101F8000442042F40042A0F8442005E0B0F8442088
:101F9000C2F30E02A0F844207047000070B5002480
:101FA00000220023058C4FF6FE7635400584028C16
:101FB0008388048B4FF68F752C40B51E2C400D88FE
:101FC0002C43751E2A400D892A434D882A43144DFF
:101FD000A8420BD0134DA84208D0134DA84205D0FB
:101FE000124DA84202D0124DA84213D14FF6F775F8
:101FF0002A404D892A434FF6FB752A408D882A4393
:102000004FF6FF652B404FF6FF552B408D892B4334
:10201000CD892B4383800483CD888586028470BD5F
:10202000002C0140003401400040014000440140C8
:1020300000480140002202881D4B98420ED01D4BE3
:1020400098420BD0B0F1804F08D01B4B984205D07E
:102050001A4B984202D01A4B984204D14FF68F7314
:102060001A404B881A43174B984207D0164B984298
:1020700004D04FF6FF431A40CB881A4302808B8866
:1020800083850B8803850A4B98420BD0094B9842F5
:1020900008D00E4B984205D00D4B984202D00D4B04
:1020A000984201D10B7A0386012383827047000096
:1020B000002C0140003401400004004000080040B2
:1020C000000C00400010004000140040004001409F
:1020D00000440140004801404FF6FF71818000211B
:1020E0000180C180418001727047000010B540F24C
:1020F00025510C4800F096F870B10A4800F04EF9EE
:10210000C4B22146074800F04EF900BF40210548FF
:1021100000F07BF80128F9D14021024800F060F876
:1021200010BD00000038014010B586B00446012102
:102130000420FFF777FD01218803FFF773FD0121DC
:102140000846FFF76FFD4FF40070ADF81400032050
:102150008DF8160018208DF8170005A91E48FFF706
:1021600079FA4FF48060ADF8140004208DF8170060
:1021700005A91948FFF76EFA01940020ADF8080090
:10218000ADF80A00ADF80C00ADF810000C20ADF869
:102190000E0001A9114800F095F801210F4800F048
:1021A00028F840210D4800F01BF8012240F225518B
:1021B0000A4800F061F825208DF8000003208DF812
:1021C00001008DF8020001208DF803006846FFF73A
:1021D00045FB06B010BD000000080140003801407A
:1021E00001F40072B2F5007F00D100BFCA43028043
:1021F000704721B1828942F40052828104E08289D1
:102200004DF6FF731A408281704702460020B1F5F7
:10221000007F00D100BF13880B400BB1012000E00C
:102220000020704770B502460024002300250020DE
:1022300040F66A16B14200D100BFC1F3421501F069
:102240001F03012606FA03F3012D02D196893340BC
:1022500006E0022D02D1168A334001E0968A33400F
:102260000C12012606FA04F41688344013B10CB19E
:10227000012000E0002070BDF0B5034600240026D8
:102280000025002040F66A17B94200D100BF184669
:10229000C1F3421401F01F06012707FA06F5012CCD
:1022A00001D10C3004E0022C01D1103000E01430D8
:1022B0001AB107682F43076002E00768AF43076061
:1022C000F0BD00002DE9F04786B005460E4600241B
:1022D000A24600BFA1460027B08900B100BF2F462B
:1022E0002C8A4CF6FF700440F08804432C82AC89A1
:1022F0004EF6F3100440B0883189084371890843D1
:102300000443AC81AC8A4FF6FF400440B0890443DB
:10231000AC8201A8FFF796FC1F48874202D1DDF886
:1023200010A001E0DDF80CA0A88900F4004040B145
:102330000AEBCA0000EB0A1031684900B0FBF1F863
:1023400007E00AEBCA0000EB0A1031688900B0FB15
:10235000F1F86420B8FBF0F004012009642101FBCE
:102360001089A88900F4004040B1322000EBC90078
:10237000B0FBF1F000F00700044308E0322000EB6E
:1023800009106421B0FBF1F000F00F0004432C8130
:1023900006B0BDE8F087000000380140014688889B
:1023A000C0F308007047C1F308028280704700BF85
:1023B000FEE700000FB4054B10B503A9044A0298CC
:1023C00000F0F6FA10BC5DF814FB00006131000863
:1023D000200000200FB4084B10B504A902AA0398EE
:1023E00000F0E4F8044602A9002000F08DFE20462B
:1023F00010BC5DF814FB00000931000802E008C8B9
:10240000121F08C1002AFAD170477047002001E06E
:1024100001C1121F002AFBD170470000014908606A
:1024200070470000240000202DE9FF5F82B00021EA
:10243000DDE90430020DDDF840B0034318D044F666
:102440001050A2F2FF3242431514119801281FD0F8
:10245000A5EB0B00401C5FEA000A4FF000064E4F50
:10246000DFF83891B046504615D5CAF1000413E0A4
:10247000119801244AA3012801D16FEA0B010298A7
:10248000119AC0E90031C0E9024206B0BDE8F09FF0
:10249000CBF10000DFE704460021404A491842EB37
:1024A0000450CDE9001012E0E00707D032463B4669
:1024B00040464946FEF711FA8046894632463B4679
:1024C00010461946FEF709FA06460F466410002C1E
:1024D000EAD1DDE90401DDE90023BAF1000F06DAF3
:1024E000FEF7FBF942464B46FEF7F7F905E0FEF72B
:1024F00066FA42464B46FEF762FA04460E46002252
:10250000284BFEF739FD03D84FF0FF30014607E0B6
:102510000022254B20463146FEF71DFCFEF713FD39
:10252000102409E0002C0ADB0A220023FEF73EFB00
:10253000039B30321A55641E50EA0102F2D1641C2A
:10254000039AC4F111031444119A012A03D0012201
:1025500008430DD10AE0084304D000204FF0110BCE
:10256000119072E7A3EB0B056D1E0DE05B4504DDDA
:102570004FF0000205F1010504E003DA4FF000021C
:10258000A5F10105002AECD002981199C0E90231A9
:10259000C0E9004579E70000000014400000F03F6A
:1025A000300000000000F0430000E03F2DE9FF4F45
:1025B0008DB00F460546002606E025280BD0DDE944
:1025C0000F1290476D1C761C28780028F5D111B0A9
:1025D0003046BDE8F08F0024A246A1460122E94919
:1025E00000E0044315F8013F203B02FA03F00842E3
:1025F000F7D128782A2810D06FF02F022878A0F180
:102600003001092914D80AEB8A0102EB410144F098
:10261000020400EB010A6D1CF0E701CF5FEA000A3B
:1026200003D544F40054CAF1000A44F002046D1CBE
:1026300028782E2817D115F8010F44F004042A2811
:102640000ED06FF02F022878A0F1300109290AD8A6
:1026500009EB890102EB410100EB01096D1CF2E776
:1026600057F8049B6D1C28786C280FD006DC4C288A
:1026700017D068280DD06A2814D104E0742810D02F
:102680007A280FD10DE044F400140AE044F48014D9
:1026900001E044F440146978814202D104F58014C9
:1026A0006D1C6D1C28786E281ED00CDC632830D081
:1026B00004DC00288BD0582811D19FE0642867D013
:1026C00069280CD164E073282DD004DC6F2872D007
:1026D000702804D194E075286ED078286DD0DDE99B
:1026E0000F129047761C4BE1C4F30250022806D02B
:1026F000032809D0042801CF09D0066040E101CFAA
:10270000F117C0E900613BE101CF068038E10670B6
:1027100036E117F8040B8DF8000000208DF8010059
:10272000EB46012003E057F804BB4FF0FF30610790
:102730004FF0000102D40DE008F10101884649453F
:102740000FDA8045F8DB1BF808100029F4D108E007
:1027500008F1010188468142FADB1BF808100029C4
:10276000F6D1DDE90F23AAEB08008146214600F0EF
:102770009DFC304400EB080604E0DDE90F121BF875
:10278000010B9047B8F10108F7D221464846F2E024
:102790000A21C4F302524FF0000B0891022A04D020
:1027A00001CFC117032A09D00AE0FF1D27F0070750
:1027B000F7E8020108E02CE01EE01FE000B2C117BC
:1027C000042A01D140B2C117021E71F1000206DADB
:1027D0000023D0EB030063EB01012D2202E0220570
:1027E00004D52B228DF82420012203E0E20701D03A
:1027F0002022F7E7904653E00A210BE0102109E080
:1028000010214FF0000B44F004044FF00809089128
:1028100003E008214FF0000B0891C4F30252022A92
:1028200004D001CF0021032A06D006E0FF1D27F0C7
:102830000707F7E8020103E080B2042A00D1C0B222
:102840004FF0000822072BD52A78702A07D0DDF830
:1028500020C08CF0100C5CEA0B0C05D00EE040227E
:102860008DF82420012208E050EA010306D030232D
:102870008DF824308DF8252002229046089B83F0A5
:10288000080353EA0B030BD150EA010201D162079E
:1028900006D530228DF824204FF00108A9F1010956
:1028A0002A78582A04D038A20B9208AA0A920BE080
:1028B0003AA2F9E75B46089AFEF778F90B9B9B5C16
:1028C0000A9A521E0A92137050EA0102F2D10A9833
:1028D000ADEB000000F1200B600702D524F480343A
:1028E00001E04FF00109D94502DDA9EB0B0000E042
:1028F000002000EB0B0141440890AAEB010AE00321
:1029000006D4DDE90F232146504600F0CFFB0644F4
:102910004FF0000908E009A911F80900DDE90F12DC
:10292000904709F10109761CC145F4DBE0030CD5A1
:10293000DDE90F232146504600F0B8FB064404E0D1
:10294000DDE90F1230209047761C0899481E089048
:102950000029F5DC08E00A980A990078491C0A91D8
:10296000DDE90F129047761CBBF10001ABF1010BC2
:10297000F1DC21465046DDE90F2300F073FB0644ED
:102980006D1C21E6092801003031323334353637E9
:1029900038396162636465660000000030313233AB
:1029A000343536373839414243444546000000004B
:1029B0002DE9FF4F95B09A46884606460025EEE180
:1029C000252877D100242746F94A0121039400E005
:1029D000044316F8013F203B01FA03F01042F7D1FF
:1029E00030782A2811D06FF02F033078A0F1300210
:1029F000092A16D8039A44F0020402EB820203EB80
:102A000042021044761C0390EFE758F8042B03921F
:102A1000002A03DA504244F40054039044F00204C4
:102A2000761C30782E2816D116F8010F44F00404D5
:102A30002A280DD06FF02F023078A0F13003092B37
:102A400009D807EB870302EB4303C718761CF3E7AB
:102A500058F8047B761C30786C280FD006DC4C28A4
:102A600017D068280DD06A2814D104E0742810D03B
:102A70007A280FD10DE044F400140AE044F48014E5
:102A800001E044F440147278824202D104F58014CB
:102A9000761C761C307866280BD013DC582877D04B
:102AA00009DC002875D04528F6D04628F4D0472800
:102AB0001AD193E118E0632835D0642879D06528CD
:102AC00012D18BE1702873D008DC6728F1D0692817
:102AD0006FD06E280DD06F2806D1ACE073282CD0B3
:102AE000752874D0782853D05246179990476D1C9A
:102AF00054E1C4F30250022809D003280DD0D8F8BD
:102B0000001004280DD00D6008F1040846E1D8F843
:102B10000010EA17C1E90052F6E7D8F800100D805E
:102B2000F2E70D70F0E718F8041B8DF80010002094
:102B30008DF80100EB46012003E058F804BB4FF08C
:102B4000FF3061074FF0000102D40DE009F10101EF
:102B50008946B9420FDA8145F8DB1BF809100029D4
:102B6000F4D108E009F1010189468142FADB1BF842
:102B700009100029F6D103985346A0EB0907214616
:102B80003846179A00F0A9FA284400EB090507E037
:102B900044E008E10DE01BF8010B524617999047FD
:102BA000B9F10109F7D2534621463846179AF2E0A7
:102BB00039E00A21C4F302524FF0000B0091022ABF
:102BC00006D058F8040BC117032A09D00AE023E005
:102BD00008F1070020F00702F2E80201904605E044
:102BE00000B2C117042A01D140B2C117002906DA88
:102BF0000A460021404261EB02012D2202E022053B
:102C000004D52B228DF80420012203E0E20701D035
:102C10002022F7E7914657E00A2100E010214FF00B
:102C2000000B00910BE010214FF0000B44F0040466
:102C30000827009103E008204FF0000B0090C4F338
:102C40000252022A05D058F8040B0021032A08D0AA
:102C500008E008F1070020F00702F2E802019046C0
:102C600003E080B2042A00D1C0B24FF0000922076D
:102C70002AD53278702A07D0DDF800C08CF0100C0D
:102C80005CEA0B0C05D00EE040228DF804200122F6
:102C900008E050EA010306D030238DF804308DF8A7
:102CA000052002229146009B83F0080353EA0B03A0
:102CB0000AD150EA010201D1620705D530228DF810
:102CC00004204FF001097F1E3278582A04D039A21F
:102CD0000C920CAA02920BE03BA2F9E75B46009A29
:102CE000FDF764FF0C9B9B5C029A521E02921370CC
:102CF00050EA0102F2D1029804A9081A00F1200B4F
:102D0000600702D524F4803400E001275F4502DD2E
:102D1000A7EB0B0000E0002000EB0B0100900398F4
:102D20004944401A0390E00306D453462146179ABB
:102D3000039800F0D2F90544002706E001A85246A6
:102D4000C05D179990476D1C7F1C4F45F6DBE00373
:102D50000CD553462146179A039800F0BEF9054456
:102D600004E030205246179990476D1C0099481E88
:102D700000900029F5DC08E002980299524600789C
:102D8000491C0291179990476D1CBBF10001ABF1F2
:102D9000010BF1DC5BE100F077F90544761C30783B
:102DA00000287FF40DAE19B02846BDE8F08F000072
:102DB0000928010030313233343536373839616211
:102DC00063646566000000003031323334353637D5
:102DD000383941424344454600000000600700D4B2
:102DE000062708F1070020F00700F0E802238046DC
:102DF00003F0004C5FEA0C0001D097A009E0200529
:102E000001D596A005E0E00701D095A001E0AFF262
:102E10004C001390307823F0004365280CD006DC7A
:102E2000452809D046281DD047287FD13BE0662899
:102E300018D067287AD136E00021112F01DB11204C
:102E400000E0781CCDE9000104A90CA8FFF7ECFA1A
:102E5000DDE90D010C9A4FF0000B07F1010910920A
:102E600000914EE04FF000400097CDE9011004A919
:102E70000CA8FFF7D9FADDE90D020C9B0F994FF072
:102E8000000B91461093009211B9791C00EB0109D7
:102E9000B7EB090003D4C0F1FF3B07F10109A9EB2F
:102EA0000700019042E0012F00DA01270021112FD5
:102EB00001DD112000E03846CDE9000104A90CA88D
:102EC000FFF7B2FADDE90D010C9A00914FF0000B0B
:102ED000B946109221070FD4009A4A4503DA914669
:102EE00001E0A9F10109B9F1010F05DD109AA9F17D
:102EF0000101515C3029F4D0B84202DA10F1040F1C
:102F000003DA0121CDE9011010E0002803DC83443D
:102F1000A9EB000102E0411C494500DD8946A0EB18
:102F20000B00401C01904FF000400290200705D498
:102F30000198484502DB4FF0FF30019000208DF8EA
:102F40004B0002980DF14B07B0F1004F25D0022045
:102F50000C902B200D90029800280CDA4042029031
:102F60002D200D9007E00A210298FDF709FE30316F
:102F7000029007F8011D0C99481E0C900029F2DC04
:102F800002980028EFD1791E0D980870307800F073
:102F9000200040F0450007F8020D11A8C01BC01D1D
:102FA00002901398007800B1012000EB090101980C
:102FB00001EBE071029801440398401A401E03900F
:102FC000E00306D453462146179A039800F085F88B
:102FD00005441398007818B15246179990476D1C14
:102FE000E00323D553462146179A039800F075F85D
:102FF00005441BE0BBF1000F07DB0098584504DDDA
:103000001098179910F80B0001E0179930205246DC
:10301000904701980BF1010B401E05F1010501904D
:1030200004D12E205246179990476D1CB9F100012A
:10303000A9F10109DEDC05E017F8010B52461799EA
:1030400090476D1C0299481E02900029F4DC5346FB
:103050002146179A03989EE62D0000002B000000E1
:10306000200000002DE9F041044600251E461746C9
:10307000880404D405E039462020B0476D1C641E46
:10308000F9D52846BDE8F0812DE9F0410446002538
:103090001E461746880404D405E039462020B04770
:1030A0006D1C641EF9D52846BDE8F0812DE9F0417C
:1030B000044600251E469046C80301D5302700E08F
:1030C0002027880404D505E041463846B0476D1CEA
:1030D000641EF9D52846BDE8F0812DE9F04104468B
:1030E00000251E469046C80301D5302700E0202762
:1030F000880404D505E041463846B0476D1C641E7F
:10310000F9D52846BDE8F0810A68531C0B601070A1
:10311000704700000146114A12884A434FF0E023ED
:103120005A6100229A611A46126942F001021A613C
:1031300000BF4FF0E022106900F001021AB100F464
:103140008032002AF5D04FF0E022126922F001020D
:103150004FF0E0231A6100229A6170471E000020A0
:1031600070B504460D46E1B20548FFF71CF900BFF3
:1031700080210348FFF749F80028F9D0204670BDA8
:10318000003801404820FEF753FE4FF4A060FEF7E0
:103190009DFB4FF41650FEF7C7FFFEF797FEFDF7B5
:1031A000E7FFFEF72DF801212848FEF7DBFEFEF7CA
:1031B000B7FBFEF795FBFDF72BFF45E002240FE080
:1031C000234850F8240023490988884206DD204816
:1031D00030F824001F4908801F480480601C84B216
:1031E000802CEDDB1C4800881C4991FBF0F01C4949
:1031F00091FBF0F01B49086008461BA102681E48BD
:10320000FFF7E8F81C48FFF7D5F81CA20021084694
:10321000FEF7A2FC13481BA102681E48FFF7DAF86C
:103220001548FFF7C7F81B4A02210020FEF794FC5F
:1032300042F20800FDF71CFF0A4801680120FDF773
:1032400033FF6420FFF766FFB8E70000002C014061
:103250005408002006000020040000200000DD6D5E
:1032600000A24A04000000204672657120413A2005
:10327000256C7520487A00002800002068656C6C79
:103280006F0000004672657120423A20256C75205F
:10329000487A0000380000202DE9F04106460F462C
:1032A000FDF700FE041E0D4618BF0120284320F044
:1032B0000040C0F17F6000F1E040C00F0ED0301C34
:1032C00018BF0120384320F00040C0F17F6000F1BA
:1032D000E040C00F04BF0120FFF7A0F820462946B8
:1032E000BDE8F0810000000000000000002F000099
:1032F00000000700070000147F147F1400242A7FB9
:103300002A12006264081323003649552250000037
:103310000503000000001C224100000041221C00A7
:103320000014083E08140008083E0808000000A029
:103330006000000808080808000060600000002025
:1033400010080402003E5149453E0000427F400003
:10335000004261514946002141454B310018141289
:103360007F10002745454539003C4A494930000156
:103370007109050300364949493600064949291EA5
:103380000000363600000000563600000008142207
:103390004100001414141414000041221408000207
:1033A0000151090600324959513E007C1211127C2C
:1033B000007F49494936003E41414122007F414159
:1033C000221C007F49494941007F09090901003E4B
:1033D0004149497A007F0808087F0000417F410089
:1033E000002040413F01007F08142241007F4040FF
:1033F0004040007F020C027F007F0408107F003EE7
:103400004141413E007F09090906003E4151215ECC
:10341000007F091929460046494949310001017FC9
:103420000101003F4040403F001F2040201F003F5F
:103430004038403F00631408146300070870080711
:1034400000615149454300007F41410000552A5524
:103450002A55000041417F0000040201020400409F
:1034600040404040000001020400002054545478C1
:10347000007F4844443800384444442000384444E1
:10348000487F00385454541800087E09010200187F
:10349000A4A4A47C007F080404780000447D4000BC
:1034A000004080847D00007F102844000000417FA0
:1034B0004000007C04180478007C0804047800387C
:1034C0004444443800FC242424180018242418FC04
:1034D000007C0804040800485454542000043F446D
:1034E0004020003C4040207C001C2040201C003C30
:1034F0004030403C004428102844001CA0A0A07C80
:10350000004464544C4414141414141400000000B7
:10351000000000000000000000000000000000F8B3
:1035200000000000000000333000000000100C0616
:10353000100C0600000000000000000040C07840B1
:10354000C0784000043F04043F040400007088FC7D
:1035500008300000001820FF211E0000F008F000D5
:10356000E018000000211C031E211E0000F0088846
:10357000700000001E2123241927211010160E00B0
:10358000000000000000000000000000000000E05B
:103590001804020000000007182040000002041870
:1035A000E00000000040201807000000404080F0CC
:1035B000804040000202010F01020200000000F002
:1035C000000000000101011F0101010000000000D6
:1035D0000000000080B0700000000000000000004B
:1035E00000000000000101010101010100000000D4
:1035F000000000000030300000000000000000006B
:1036000080601804006018060100000000E0100847
:103610000810E000000F102020100F00001010F81C
:10362000000000000020203F20200000007008085B
:1036300008887000003028242221300000300888DB
:10364000884830000018202020110E000000C02003
:1036500010F8000000070424243F240000F8088824
:10366000880808000019212020110E0000E01088B1
:1036700088180000000F112020110E0000380808E3
:10368000C83808000000003F0000000000708808F3
:1036900008887000001C222121221C0000E0100874
:1036A0000810E0000000312222110F00000000C0CD
:1036B000C00000000000003030000000000000806A
:1036C000000000000000806000000000000080405A
:1036D0002010080000010204081020004040404073
:1036E00040404000040404040404040000081020C6
:1036F000408000000020100804020100007048080B
:103700000808F0000000003036010000C030C82872
:10371000E810E0000718272423140B000000C0382D
:10372000E0000000203C23020227382008F88888A7
:1037300088700000203F202020110E00C0300808B3
:1037400008083800071820202010080008F808088A
:103750000810E000203F202020100F0008F8888883
:10376000E8081000203F20202320180008F888884F
:10377000E8081000203F200003000000C0300808C7
:103780000838000007182020221E020008F8080050
:103790000008F808203F210101213F20000808F817
:1037A000080800000020203F20200000000008083A
:1037B000F8080800C08080807F00000008F888C0FA
:1037C00028180800203F20012638200008F80800AB
:1037D00000000000203F20202020300008F8F800E2
:1037E000F8F80800203F003F003F200008F830C0F4
:1037F0000008F808203F200007183F00E0100808E4
:103800000810E0000F10202020100F0008F8080812
:103810000808F000203F210101010000E010080825
:103820000810E0000F18242438504F0008F888884A
:1038300088887000203F2000030C3020007088082A
:10384000080838000038202121221C00180808F838
:10385000080818000000203F2000000008F80800B9
:103860000008F808001F202020201F00087888008A
:1038700000C83808000007380E010000F80800F8FA
:103880000008F800033C0700073C030008186880A4
:103890008068180820302C03032C30200838C8001A
:1038A000C83808000000203F200000001008080869
:1038B000C83808002038262120201800000000FE0B
:1038C000020202000000007F40404000000C30C0B7
:1038D00000000000000000010638C00000020202E3
:1038E000FE000000004040407F0000000000040295
:1038F00002020400000000000000000000000000C0
:1039000000000000808080808080808000020204AF
:1039100000000000000000000000000000008080A7
:10392000808000000019242222223F2008F8008015
:1039300080000000003F112020110E0000000080D8
:1039400080800000000E1120202011000000008067
:103950008088F800000E112020103F200000808099
:1039600080800000001F222222221300008080F0AD
:10397000888888180020203F2020000000008080D8
:1039800080808000006B94949493600008F800801D
:1039900080800000203F210000203F200080989878
:1039A000000000000020203F2020000000000080D8
:1039B0009898000000C08080807F000008F8000018
:1039C00080808000203F24022D302000000808F86D
:1039D000000000000020203F202000008080808028
:1039E00080808000203F20003F20003F80800080BA
:1039F00080800000203F210000203F2000008080C8
:103A000080800000001F202020201F008080008078
:103A10008000000080FFA12020110E000000008027
:103A200080808000000E112020A0FF808080800018
:103A30008080800020203F21200001000000808045
:103A4000808080000033242424241900008080E03A
:103A5000808000000000001F202000008080000007
:103A600000808000001F202020103F2080808000E8
:103A70000080808000010E300806010080800080F8
:103A8000008080800F300C030C300F00008080001D
:103A9000808080000020312E0E3120008080800048
:103AA0000080808080818E701806010000808080F8
:103AB000808080000021302C222130000000000096
:103AC000807C020200000000003F40400000000037
:103AD000FF00000000000000FF0000000002027C68
:103AE000800000000040403F00000000000601018F
:103AF0000202040400000000000000001C3B00085B
:103B00000000002028000000FC230008443B0008BF
:103B100028000020300E00000C24000800000000E7
:103B20000000000000000000010203040102030481
:103B30000607080902040608000000000000000053
:043B40000000000081
:0400000508000131BD
:00000001FF
