:020000040800F2
:10000000380E00204901000831190008D5140008F5
:100010002D190008950F00080725000800000000B2
:10002000000000000000000000000000D11A0008DD
:10003000C311000800000000B9190008E51B000802
:100040006301000863010008630100086301000800
:1000500063010008630100086301000863010008F0
:10006000630100086301000863010008990F00089C
:1000700063010008630100086301000863010008D0
:1000800063010008630100086301000863010008C0
:1000900063010008630100086301000863010008B0
:1000A00063010008630100086301000863010008A0
:1000B0006301000863010008630100086301000890
:1000C0006301000863010008630100086301000880
:1000D000630100084522000863010008630100086D
:1000E0006301000863010008630100086301000860
:1000F0006301000863010008630100086301000850
:10010000630100086301000863010008630100083F
:10011000630100086301000863010008630100082F
:10012000630100086301000863010008630100081F
:10013000DFF810D000F0B2FD004800478928000821
:10014000AFF30080380E002006488047064800477D
:10015000FEE7FEE7FEE7FEE7FEE7FEE7FEE7FEE777
:10016000FEE7FEE7251C0008310100082DE9F04FED
:100170004FF0000C4FF0000301EB1C6EBEF9025073
:10018000BEF900400EF5807EBEF90290BEF90080F7
:100190000EF5807EBEF90270BEF900600EF5807E1D
:1001A000BEF902B0BEF900A00EF5807ED044D9445D
:1001B000A8EB4A0AA9EB4B0B4FEAA4044FEAA505AA
:1001C00004EBA60405EBA705A4EB6606A5EB670701
:1001D00004EBA80405EBA905A4EB6808A5EB6909E5
:1001E00006EBAB06A7EBAA07A6EB6B0B07EB6A0ABD
:1001F000458020F8044B478020F8046BA0F802905B
:1002000020F8048BA0F802A020F804BB03F101033E
:1002100093FAA3FC402BAFD1A0EB82014FF0100367
:1002200012090FF2361000F1000006B403EB430C84
:100230006144A2F5803202EB8332B1F90250B1F988
:100240000040A1EB0301B0F902B0B0F900A000F149
:100250000400A5EB040E0EFB0BFC0AEB4B0E05FB9A
:100260000ACB04FB0ECAB1F90250B1F90040A1EB70
:100270000301B0F90290B0F9008000F10400A5EB91
:10028000040E0EFB09FC08EB490E05FB08C904FB34
:100290000EC8B1F90250B1F90040A1EB0301B0F969
:1002A0000270B0F9006000F10400A5EB040E0EFB33
:1002B00007FC06EB470E05FB06C704FB0EC6B1F9AB
:1002C0000250B1F9004001F10001D044D944A8EB3B
:1002D0004A0AA9EB4B0B4FEAA4044FEAA50504EB2D
:1002E000264405EB2745A4EBE636A5EBE73704EB00
:1002F000284405EB2945A4EBE838A5EBE93906EBE2
:100300002B46A7EB2A47A6EBEB3B07EBEA3A4D80DF
:100310000C8019444F800E801944A1F80290A1F876
:1003200000801944A1F802A021F804BBB2F5803284
:1003300083DA03EB430C6144A2F101025FEA024E4F
:1003400018BFA0EB0C007FF476AF06BC4FEA830326
:1003500092087FF46AAFBDE8F08F004000000040D3
:100360000000004000005DDD213BA3227E1800005C
:10037000412D7EA5412D0000412D00C000405DDDD6
:1003800082E75DDD213B7EA5412D0040000000405D
:10039000000000400000AA2A94126B394606493238
:1003A0007C0CA8118E2349327C0CA3227E1821F7E5
:1003B0007931AA2A9412A8118E235DDD213BA32254
:1003C0007E180000412D95C6B13F461A2B1E58EEEF
:1003D0003735BEB4C53EA8118E235DDD213B63A930
:1003E0007138DF089A28B7CDC53E7EA5412D0000A3
:1003F000412D00C0004063A92B1E21F77931BEB406
:10040000C53EBEB47C0C58EE373561AC213B95C679
:10041000BAF9BAE571383BA737355DDD82E75DDDB6
:10042000213B7EA5412D21F766D756D53F3D3BA701
:100430008E23A811C9CAB7CDC53E61AC7E18AA2AC1
:10044000C1C295C6B13FBEB47C0C00400000004064
:100450000000004000001E3BB504693E9201C83C0C
:100460002403EB356409C83C24036B3946066C3021
:10047000060E1E3BB504EB356409AA2A94126B39AB
:10048000460649327C0CAE240917AF37D607882EB2
:100490008D0F7E1E5D1BEB356409AA2A9412241869
:1004A0008C1F1E34F10AB3269015A8118E234932F1
:1004B0007C0CA3227E18140B60276C30060E7E1E67
:1004C0005D1B7104FB2A882E8D0F461A2B1EC7FD5B
:1004D0005A2E9D2C1211FE15E72021F77931AA2AF8
:1004E0009412A8118E2387F05334B2281314480DA8
:1004F000202602EAE536B3269015DF089A289CE309
:100500002B39AE2409177104FB2A5DDD213BA322A0
:100510007E180000412D4ED7C53C9320EF198FFB6C
:100520006C2F78D1153E7E1E5D1B21F77931E2CB11
:100530000F3F641CC61CB8F2683395C6B13F461A1B
:100540002B1E58EE373597C1FB3F24188C1F02EA4B
:10055000E536F0BCEC3FFE15E720BAE57138A6B8E9
:10056000853FD5133D2282E1DB39BEB4C53EA811DB
:100570008E235DDD213B40B1AF3D790FDA244DD9AB
:10058000423C2EAE423C480D202656D53F3D8EAB18
:10059000823A140B602778D1153E63A97138DF08C1
:1005A0009A28B7CDC53EB1A71236A906CE2915CADD
:1005B0004F3F78A668337104FB2A95C6B13FBCA5AE
:1005C00076303902212C38C3EC3F7EA5412D000046
:1005D000412D00C00040BCA5CE29C7FD5A2EF0BC5D
:1005E000EC3F78A620268FFB6C2F09BAB13FB1A74C
:1005F0003D2257F976304DB74F3F63A92B1E21F7A7
:100600007931BEB4C53E8EABEF19ECF474325EB2F4
:10061000153E2EAE9015B8F268332DB03F3D40B177
:10062000121187F053342EAE423CBEB47C0C58EE0F
:10063000373561AC213BA6B8D6072BEC1236C8AAD9
:10064000DB39F0BC240302EAE53663A9713897C1AF
:100650006EFEDCE7B03734A8E53695C6BAF9BAE5E0
:1006600071383BA73735E2CB0FF59CE32B3978A6E1
:10067000683378D173F082E1DB39EDA579314ED75B
:10068000EDEB6DDF823A99A56C2F5DDD82E75DDDD4
:10069000213B7EA5412D9CE33AE352DBB63B99A575
:1006A000FB2A02EA19DF4DD9423CEDA59A2887F0D2
:1006B00026DB4ED7C53C78A6202621F766D756D52F
:1006C0003F3D3BA78E23C7FDDFD363D3AF3D34A8A7
:1006D000E720710494D078D1153E63A92B1E140B2A
:1006E0008CCD94CF723EC8AA5D1BA811C9CAB7CDE4
:1006F000C53E61AC7E18241850C8E2CB0F3F2EAE29
:1007000090157E1E25C615CA4F3F2DB09412AE24FB
:100710004AC451C8853F5EB28D0FAA2AC1C295C690
:10072000B13FBEB47C0C6C308EC1E2C4D43F4DB737
:100730006409EB35B1C038C3EC3F09BA46061E3B2D
:100740002CC097C1FB3FF0BC2403F0B480EA010247
:10075000D40F4200B2EB410F02D2024608461146C6
:100760004A0042D0C30DDDB2C1F3C752AD1A202DED
:1007700035DAC1F3160141F4000204B15242C5F169
:10078000200602FA06F12A411044B3EBD05F23D0D1
:10079000C4B1012DA0EBC35009DCF0BC4FF0004206
:1007A00002EAC352DBB200F5000000F09BB9400042
:1007B00000F1807000EBC350A0F1807040EAD1706E
:1007C000490009E0490841EAC071A0EBC35000F5B7
:1007D0000000400800EBC350F0BC00F07AB9614261
:1007E000012202EB4101001BF6E7F0BC704781F0EB
:1007F0000041AAE780F00040A7E780EA010210B5B7
:1008000002F00043400022D04A001FD0010E01EB4D
:100810001261C0F35600C2F3560240F4000042F4E5
:100820000002A0FB022000047F39140400D0401C09
:1008300050EA124001D44000491EC2B20C0604EB3B
:10084000D010401C4008802A02D003E0002010BDD8
:1008500020F00100002900DA0020184310BD30B458
:1008600080EA010202F0004530F0004221F0004031
:1008700013D090B1C30DD40DC2F31601C0F316000E
:10088000E41A41F4000140F400027D34914201D3A6
:10089000641C00E04900002C02DA30BC00207047E4
:1008A0004FF400000023914201D3891A034340080A
:1008B0004FEA4101F7D151B1914202D14FF00041CD
:1008C00005E002D24FF0010101E06FF0010103EBFE
:1008D000C450284430BC00F0FCB82DE9F04D81EA4A
:1008E000030404F0004B21F0004514464FF0000AC9
:1008F00023F0004150EA050220D054EA01021DD045
:10090000C5F30A570246C5F31303C1F31300C1F33D
:100910000A5640F4801543F48013A7EB0608101B19
:10092000D64608F2FD3873EB050002D308F1010842
:1009300001E092185B41B8F1000F03DA0020014694
:10094000BDE8F08D00204FF48011064684460EE08D
:10095000171B73EB050705D3121B63EB0503064357
:100960004CEA010C49084FEA300092185B4150EA0A
:100970000107EDD152EA030012D082EA040083EAB3
:100980000501084305D0101BAB4106D2012200230C
:1009900006E000224FF0004302E06FF00102531026
:1009A0001AEB06004CEB085110EB0A0041EB0B016F
:1009B000BDE8F04D00F0C4B8C10F80EAE070084413
:1009C000CA079623002100F08DB820F00040C10D29
:1009D000C0F3160040F400007F2901DA00207047C0
:1009E000962903DCC1F19601C840704796398840CA
:1009F000704700F0004230F000400AD0C10D01F510
:100A00006071C0F3160042EA0151C2084007114369
:100A1000704700200146704701F0004330B421F0D8
:100A2000004150EA010206D00A0DA2F56072C1F33E
:100A30001301002A02DC30BC00207047440F44EA56
:100A4000C104C100E01830BC00EBC25000F041B856
:100A50002DE9F05F0546002092469B4688460646F3
:100A6000814640241BE0284641464746224600F086
:100A700020F853465A46C01A914110D311461846E1
:100A8000224600F01DF92D1A67EB01084F46224659
:100A90000120002100F014F917EB00094E41201E3F
:100AA000A4F10104DFDC484631462A464346BDE84E
:100AB000F09F202A04DB203A21FA02F0002170473F
:100AC00021FA02F3D040C2F12002914008431946B6
:100AD00070470029A8BF7047401C490008BF20F09C
:100AE0000100704710B4B0FA80FC00FA0CF050EA34
:100AF000010404BF10BC704749B1CCF1200421FAB5
:100B000004F411FA0CF118BF012121430843A3EBAF
:100B10000C01CB1D4FEA00614FEA102042BF0020BC
:100B200010BC704700EBC35010440029A4BF10BC98
:100B30007047401C490008BF20F0010010BC7047FE
:100B400010B5141E73F1000408DA401C41F10001D5
:100B500092185B411A4301D120F0010010BD2DE92C
:100B6000F04D92469B4611B1B1FA81F202E0B0FA23
:100B700080F22032904600F0A3F804460F4640EA87
:100B80000A0041EA0B0153465A46084313D0114666
:100B900053EA010019D0C8F140025046FFF789FF1F
:100BA00005460E4650465946424600F089F808432D
:100BB00005D0012004E020463946BDE8F08D002034
:100BC000054346EAE0762C4337430A986305E40A76
:100BD000A0EB08000022FD0A44EA47540A3002D57F
:100BE00000200146E9E7010510196941DDE90845E2
:100BF00000196941BDE8F04DA2E72DE9F04D002351
:100C00001A461B1A8A4103DB00200146BDE8F08D1D
:100C1000C1F30A52C1F3130141F480154FF0000BE8
:100C2000D10702D100186D41521E0027044640F240
:100C3000FF11384601EB620A3E468046024600201C
:100C40004FF48011FFF735FFC2197141BB1846EB15
:100C50000100B4EB030C75EB000C04D3E41A65EB54
:100C6000000517460E46241908F101006D41804623
:100C70003428E3DDF91946EB0600091BA84103D22D
:100C80004FF0FF32134601E0002213461BEB070032
:100C900046EB0A51BDE8F04DFFF752BF064C074D39
:100CA00006E0E06840F0010394E80700984710343C
:100CB000AC42F6D3FFF740FAB4450008D44500082B
:100CC000202A04DB203A00FA02F10020704791400C
:100CD000C2F1200320FA03F319439040704700004B
:100CE00000B58DB00121084600F068FE4FF4C060E9
:100CF00000F058FE0B208DF8040000208DF8050050
:100D00008DF8060001208DF8070001A800F012FE02
:100D1000144800F089F91448029014480390002008
:100D200004904FF48070059000200690802007907A
:100D3000400008908000099020200A9000020B904B
:100D400000200C9002A9074800F01DFA012206219C
:100D5000044800F00FFA0121024800F059F90DB0E3
:100D600000BD0000080002404C2401403400002077
:100D700000B587B00121480200F030FE01211020AB
:100D800000F02CFE0220ADF8040000208DF80700D2
:100D900001A91C4800F0A3FA002002908DF80C0075
:100DA0008DF80D000490059001208DF8180002A91F
:100DB000154800F061F8002301220B21124800F0D1
:100DC00083F80121104800F021F801210E4800F0BD
:100DD00033F801210C4800F024F80B4800F0D0F85B
:100DE00000BF094800F03DF80028FAD1064800F09D
:100DF000CCF800BF044800F02AF80028FAD107B068
:100E000000BD0000001001400024014021B18268B3
:100E100042F00102826003E0826822F001028260F7
:100E2000704721B1826842F48072826003E0826878
:100E300022F480728260704721B1826842F480128D
:100E4000826003E0826822F480128260704701466B
:100E500000208A6802F004020AB1012000E00020AC
:100E60007047014600208A6802F008020AB101209A
:100E700000E000207047000030B50246002000234B
:100E800050680F4C20400D790C6844EA052420433B
:100E9000506090680B4C2040D1E902542C434D79AE
:100EA00044EA450420439060D06A20F470000C7C32
:100EB000641EE4B2234340EA0350D06230BD000018
:100EC000FFFEF0FFFDF7F1FFF0B504460D460020F0
:100ED0000021092D11DDE068A5F10A0606EB4607A1
:100EE000072606FA07F18843A5F10A0606EB46062F
:100EF00003FA06F10843E0600CE0206905EB4507C2
:100F0000072606FA07F1884305EB450603FA06F1C2
:100F100008432061072A0FDA606B561E06EB86072E
:100F20001F2606FA07F18843561E06EB860605FAC9
:100F300006F10843606322E00D2A0FDA206BD61F0A
:100F400006EB86071F2606FA07F18843D61F06EB35
:100F5000860605FA06F10843206310E0E06AA2F174
:100F60000D0606EB86071F2606FA07F18843A2F155
:100F70000D0606EB860605FA06F10843E062F0BDB1
:100F8000816841F0080181607047816841F0040187
:100F90008160704700BFFEE710B5002400211148B2
:100FA00000F036F8042000F025F8022000F022F8C6
:100FB00000BF08E00C4830F8140000040B4941F869
:100FC0002400601C84B2FF2CF4DD4FF480720749CA
:100FD0000748FFF7CBF800F00FFA0121014800F0B5
:100FE00017F810BD08000240340000203402002031
:100FF0003406002000F0805111B10349086001E07F
:1010000002494860704700000404024000000240AA
:1010100021B1026842F00102026004E002684FF66A
:10102000FE731A400260704701684FF6FE7211406D
:1010300001600021016041608160C1604B498842CC
:1010400008D14A490839496841F00F01474A083A2E
:1010500051608AE045491431884208D14349083932
:10106000496841F0F001414A083A51607DE03F494A
:101070002831884208D13D490839496841F47061F6
:101080003A4A083A516070E038493C31884208D108
:1010900036490839496841F47041344A083A516088
:1010A00063E032495031884208D1304908394968F3
:1010B00041F470212D4A083A516056E02B496431C1
:1010C000884208D129490839496841F47001274A02
:1010D000083A516049E025497831884208D12349CE
:1010E0000839496841F07061204A083A51603CE093
:1010F0001F49884206D1011F096841F00F01021FF4
:10110000116032E01A491431884208D11849091F88
:10111000096841F0F001164A121F116025E01449D8
:101120002831884208D11249091F096841F47061C9
:101130000F4A121F116018E00D493C31884208D156
:101140000B49091F096841F47041094A121F1160D7
:101150000BE007495031884207D10549091F09684A
:1011600041F47021024A121F1160704708000240CA
:10117000080402401AB103680B43036002E00368ED
:101180008B430360704710B50022026847F6F07386
:101190009A430C6A8B6823430C6923434C692343AD
:1011A0008C692343CC6923434C6A23438C6A2343D1
:1011B0001A430260CB6843600B6883604B68C3606E
:1011C00010BD704751B18200A2F1C042126842F0D6
:1011D00001038200A2F1C042136009E08200A2F183
:1011E000C0421268034B1A408300A3F1C0431A6047
:1011F00070470000FEFF0F00D0E901121143C268E2
:101200001143026911434269114382691143C26962
:101210001143026A1143426A1143826A1143C26A4E
:101220001143026B114302689200A2F1C0421160A7
:10123000816808290BD101688900A1F1C0410968C2
:1012400041F0400201688900A1F1C0410A60416B90
:101250000968426B526841EA0211426B926841EAA6
:101260000221426B928941EA0241426B128A41EAB1
:101270000251426B127D41EA0261426B9269114355
:101280000268521C9200A2F1C0421160C16AB1F51D
:10129000804F1BD1816B0968826B526841EA021151
:1012A000826B926841EA0221826B128A41EA025102
:1012B000826B127D41EA0261826B9269114302687E
:1012C0009200A2F1C042C2F8041107E06FF0704230
:1012D00001688900A1F1C041C1F8042170472DE9DE
:1012E000F0410246002500260020002300240027AC
:1012F00091F803C00CF00F0591F803C00CF0100C2E
:10130000BCF1000F03D091F802C04CEA050591F83A
:1013100000C0BCF1000F31D0146800202BE04FF06A
:10132000010C0CFA00F3B1F800C00CEA03069E426F
:1013300020D183004FF00F0C0CFA03F7BC4305FAE1
:1013400003FC4CEA040491F803C0BCF1280F06D159
:101350004FF0010C0CFA00FCC2F814C00AE091F83E
:1013600003C0BCF1480F05D14FF0010C0CFA00FC92
:10137000C2F810C0401C0828D1D31460B1F800C0D6
:10138000BCF1FF0F34DD546800202EE000F1080CA2
:101390004FF0010808FA0CF3B1F800C00CEA03069C
:1013A0009E4221D183004FF00F0C0CFA03F7BC438F
:1013B00005FA03FC4CEA040491F803C0BCF1280FC1
:1013C00005D100F1080C08FA0CF8C2F8148091F865
:1013D00003C0BCF1480F07D100F1080C4FF0010821
:1013E00008FA0CF8C2F81080401C0828CED35460CC
:1013F000BDE8F081016170472DE9F04F89B000240C
:101400005DE0314830F824000FFA80F92E4850F89A
:1014100024004FEA204A4846FFF7CEFA80464FF0B4
:101420008741FFF7EAF907464FF08E41FFF717FAB9
:1014300005465046FFF7C0FA80464FF08741FFF758
:10144000DCF907464FF08E41FFF709FA06463146B0
:101450003046FFF7D2F9294602902846FFF7CDF92A
:1014600001900299FFF771F90390FFF7C2FACDE9F5
:10147000040101F085FA0022144BCDE90601FFF7C3
:101480002CFA0746FFF7C8FA83465CB94FF08E4145
:101490005846FFF7B2F90746FFF797FA0C4941F8AB
:1014A00024000AE04FF08F415846FFF7A6F907469F
:1014B000FFF78BFA064941F82400601C84B2802CA7
:1014C0009FDB09B0BDE8F08F3406002000007040BB
:1014D0003408002000BFFEE770B506460F4840887C
:1014E000401E83B20D480088401E82B2002108468B
:1014F00000F068F800240CE0002504E0304600F01D
:10150000F5F9681C85B205484088A842F6DC601CE5
:1015100084B202480088A042EEDC70BD20000020AA
:1015200000B50246B2B9012000F0D4F94FF4807042
:1015300000F0D6F9032000F0CDF941F2300000F0C0
:10154000CFF94FF4C8700E494880F0200880002081
:10155000887114E0012000F0BDF9002000F0C0F90E
:10156000032000F0B7F941F2380000F0B9F9F0209B
:10157000034948804FF4C87008800120887100BD7D
:101580002000002070B504460D4616462B46224624
:101590002946204600F016F8304600F0A7F970BD45
:1015A00010B50246012000E050430B1EA1F10104DA
:1015B000E1B2F9D110BD0000014800887047000079
:1015C0000008006C30B505460C462E48807950BBAB
:1015D0004FF4047000F07EF9284600F081F940F2E3
:1015E000112000F077F9104600F07AF940F212204D
:1015F00000F070F9204600F073F940F2132000F07B
:1016000069F9184600F06CF94FF4007000F062F9C7
:10161000284600F065F940F2012000F05BF9204611
:1016200000F05EF929E040F2122000F053F928465C
:1016300000F056F940F2132000F04CF9104600F08B
:101640004FF94FF4047000F045F9204600F048F9D6
:1016500040F2112000F03EF9184600F041F940F246
:10166000012000F037F9284600F03AF94FF40070F5
:1016700000F030F9204600F033F940F2022000F08B
:1016800029F930BD200000202DE9F84F80460E4694
:1016900017461C46B3462046E31704EB5373DB1092
:1016A00021464FEAE47C04EB5C7C4FEAEC0CA4EBB3
:1016B000CC0CBCF1000F02D04FF0010C01E04FF058
:1016C000000C6344224604EBD27C4FEA6C0C03FB13
:1016D0000CF3DBB20093A7F12000C7B2002556E05F
:1016E0000C2C07D107EB47002B4901EB800010F8C9
:1016F000059013E0102C05D1284800EB071010F8D6
:1017000005900BE0182C07D107EBC700244901EB2B
:10171000800010F8059001E0BDE8F88F4FF0000A56
:101720002FE009F0800030B11E4802883146404663
:10173000FFF728FF07E00A9828B91B4802883146BE
:101740004046FFF71FFF4FEA49604FEA1069701CDF
:1017500086B216484088B04200DCDDE7A6EB0B00FD
:10176000A0420AD15E4608F101001FFA80F80F4836
:101770000088404500DCCFE706E00AF1010000F0F8
:10178000FF0ABAF1080FCCDB00BF681CC5B2009895
:101790008542A5DB00BFBFE7CC290008402E00082A
:1017A000303400081C0000201E0000202000002013
:1017B0002DE9F84704460D4690469946DDE909674C
:1017C00004F0FF0A08EB04001FFA80F809EB05009B
:1017D0001FFA80F916E0444502DB5446A81985B289
:1017E0004D4500DB14E0002000903A78334629464E
:1017F0002046FFF749FF304606EBD07104EB61014C
:101800008CB27F1C38787E2802DC38782028E2DA17
:1018100000BFBDE8F8872DE9FF4F82B0064692462B
:101820001F46DDE90F480020019000254DE0781BA0
:10183000401EC1B20A20FFF7B3FEBAFBF0F00A2146
:10184000B0FBF1F201FB1209019850BB781EA842CF
:1018500027DDB9F1000F22D108F0800078B108F03F
:101860000100A34604EBDB71491001FB0561009008
:1018700088B2234630220399FFF706FF0EE008F0F6
:101880000100A34604EBDB71491001FB05610090E8
:1018900088B2234620220399FFF7F6FE13E00120C9
:1018A000019008F00100A34604EBDB71491001FB35
:1018B0000561009088B209F13001CAB2234603994C
:1018C000FFF7E2FE00BF681CC5B2BD42AFDB06B049
:1018D000BDE8F08F0149088070470000FE07006CEA
:1018E00001490880704700000008006C0149088029
:1018F000704700000008006C08B50121102000F0BE
:101900006DF8FF20ADF8000010208DF803000320D3
:101910008DF8020069460448FFF7E1FCFF21024808
:10192000FFF768FD08BD00000010014000BFFEE7A2
:101930007047000070B5002100230F22C47804B363
:10194000154C246804F4E064C4F5E064210AC1F194
:101950000403CA40447804FA03F184781440214314
:1019600009010E4C0678A155047804F01F050124E6
:10197000AC4005786D11AD0005F1E025C5F80041DA
:1019800009E0047804F01F050124AC40044D0678FA
:10199000761145F8264070BD0CED00E000E400E053
:1019A00080E100E002490143024A116070470000F3
:1019B0000000FA050CED00E07047000029B1064A6E
:1019C00052690243044B5A6104E0034A526982435C
:1019D000014B5A61704700000010024029B1064ACD
:1019E00092690243044B9A6104E0034A926982437C
:1019F000014B9A61704700000010024030B5002191
:101A00000022002400232D4D6D6805F00C0121B14A
:101A1000042905D0082923D105E0294D056022E0DD
:101A2000274D05601FE0254D6D6805F47012234DAC
:101A30006D6805F48034022505EB92421CB9214DF6
:101A4000554305600BE01D4D6D6805F400351DB173
:101A50001C4D5543056002E0194D5543056002E0F9
:101A6000174D056000BF00BF144D6D6805F0F00113
:101A70000909154D6B5C0568DD4045600F4D6D68CB
:101A800005F4E061090A104D6B5C4568DD40856036
:101A90000A4D6D6805F46051C90A0B4D6B5C4568D1
:101AA000DD40C560054D6D6805F44041890B074D6B
:101AB0006B5CC568B5FBF3F5056130BD00100240F5
:101AC00000127A0000093D000800002018000020E4
:101AD000704710B500F002F810BD00000CB50020F2
:101AE000019000903348006840F48030314908602C
:101AF00000BF3048006800F4003000900198401C9E
:101B00000190009818B90198B0F5A06FF1D129485B
:101B1000006800F4003010B10120009001E00020C6
:101B200000900098012843D12348006840F010003D
:101B3000214908600846006820F003000860084654
:101B4000006840F0020008601A484068194948607F
:101B50000846406848600846406840F48060486035
:101B60000846406820F47C1048600846406840F40D
:101B7000E81048600846006840F08070086000BFC8
:101B80000C48006800F000700028F9D0094840684F
:101B900020F00300074948600846406840F0020012
:101BA000486000BF0348406800F00C000828F9D1E5
:101BB0000CBD00000010024000200240042808D1A3
:101BC0004FF0E021096941F004014FF0E02211617A
:101BD00007E04FF0E021096921F004014FF0E02215
:101BE000116170477047000010B504466FF00400A3
:101BF000FFF7E4FFE11704EB5171C1F3C701074A96
:101C000011701046007800EB4001C1EBC0104FF698
:101C1000FF7101EAC0000249088010BD28000020C1
:101C20002A00002010B51348006840F00100114957
:101C3000086008464068104908400E494860084658
:101C400000680E4908400B4908600846006820F407
:101C5000802008600846406820F4FE0048604FF489
:101C60001F008860FFF735FF4FF0006004490860EF
:101C700010BD0000001002400000FFF8FFFFF6FE5C
:101C800008ED00E000B59DB001210802FFF796FEC7
:101C900001200790002008900F20099000200A9052
:101CA0000B900C900D90009001900320029000206A
:101CB000039004900590069006200E9000200F904F
:101CC00010901020119000201290149013901590F5
:101CD00016904FF480501790002018904FF48040D9
:101CE000199000201A9007A81B90CDF870D00EA86C
:101CF000FFF782FA01210620FFF764FA1DB000BD4C
:101D000008B501214FF4B070FFF768FE4CF2337054
:101D1000ADF8000018208DF8030003208DF80200B4
:101D200069461048FFF7DBFA4FF68070ADF8000007
:101D300018208DF8030003208DF8020069460A4838
:101D4000FFF7CDFA41F20100ADF8000018208DF840
:101D5000030003208DF8020069460448FFF7BFFA2C
:101D600008BD00000014014000180140002001409F
:101D700010B5FFF7C5FFFFF785FF322000F04CFDDF
:101D80000020FFF7A7FDFFF717FCA1498880084650
:101D90008188A0A000F0BAFB0020FFF79BFD002087
:101DA000FFF79EFD0020FFF795FD0020FFF798FD4F
:101DB0000020FFF78FFD0020FFF792FD4FF48060B9
:101DC000FFF788FD4FF4C440FFF78AFD0820FFF7B6
:101DD00081FD40F60800FFF783FD0120FFF77AFD43
:101DE0004FF48070FFF77CFD0220FFF773FD4FF486
:101DF0008070FFF775FD0320FFF76CFD41F23000A6
:101E0000FFF76EFD0820FFF765FD40F60800FFF7BD
:101E100067FD4FF44070FFF75DFD0C20FFF760FD9C
:101E200040F20130FFF756FD45F60B20FFF758FD55
:101E300040F20230FFF74EFD40F60610FFF750FD6E
:101E400040F20330FFF746FD41F21700FFF748FD6F
:101E50004FF44170FFF73EFD4FF40C50FFF740FD8B
:101E600040F20530FFF736FD4FF4B850FFF738FD6C
:101E700040F20630FFF72EFD46F20930FFF730FD45
:101E800040F20730FFF726FD40F60940FFF728FD36
:101E90004FF44270FFF71EFD41F20C00FFF720FDEA
:101EA00040F20930FFF716FD42F23220FFF718FD2D
:101EB0001020FFF70FFD1420FFF712FD1120FFF790
:101EC00009FD40F20110FFF70BFD4FF48070FFF7A2
:101ED00001FD4FF40C70FFF703FD322000F09CFC75
:101EE00040F20110FFF7F6FC40F24720FFF7F8FC44
:101EF0004FF4FA7401E0601E84B2002CFBDC322047
:101F000000F08AFC40F20310FFF7E4FC4FF420607D
:101F1000FFF7E6FC4FF4FA7401E0601E84B2002C77
:101F2000FBDC0A2000F078FC4FF42070FFF7D2FCB5
:101F30004FF2FF00FFF7D4FC322000F06DFC4FF4AD
:101F4000FA7401E0601E84B2002CFBDC4FF4817057
:101F5000FFF7C0FC4BF2B010FFF7C2FC4FF4FA746D
:101F600001E0601E84B2002CFBDC322000F054FC47
:101F70004FF40470FFF7AEFC0020FFF7B1FC40F215
:101F80001120FFF7A7FCEF20FFF7AAFC40F2122078
:101F9000FFF7A0FC0020FFF7A3FC40F21320FFF79F
:101FA00099FC40F28F10FFF79BFC4FF40070FFF795
:101FB00091FC0020FFF794FC40F20120FFF78AFC1F
:101FC0000020FFF78DFC40F20140FFF783FC00206A
:101FD000FFF786FC0720FFF77DFC4FF48070FFF7CA
:101FE0007FFC4FF4FA7401E0601E84B2002CFBDC2D
:101FF000322000F011FC40F20220FFF76BFC0020C1
:10200000FFF78EFA4FF6FF70FFF766FA10BD00007B
:1020100020000020204C43442049443A25780D0AF2
:102020000000000000B589B00121C802FFF7D6FC0E
:1020300001210420FFF7D2FC4FF48070ADF80400BA
:1020400003208DF8060018208DF8070001A9194813
:10205000FFF745F906A800F0EBF842F20F70ADF873
:102060001C0040F2CF20ADF818000020ADF81E0093
:10207000ADF81A0006A9104800F088F86020ADF805
:1020800008000120ADF80A004FF4FA50ADF80E0038
:102090000220ADF8100002A9074800F02BF801213A
:1020A000054800F017F80021034800F007F809B0D0
:1020B00000BD000000080140002C014021B1028851
:1020C00042F00102028004E002884FF6FE731A40DB
:1020D0000280704731B1B0F8442042F40042A0F8C9
:1020E000442005E0B0F84420C2F30E02A0F84420DA
:1020F0007047000070B5002400220023058C4FF6C5
:10210000FE7635400584028C8388048B4FF68F75EC
:102110002C40B51E2C400D882C43751E2A400D897D
:102120002A434D882A43144DA8420BD0134DA84290
:1021300008D0134DA84205D0124DA84202D0124D2E
:10214000A84213D14FF6F7752A404D892A434FF61E
:10215000FB752A408D882A434FF6FF652B404FF6CA
:10216000FF552B408D892B43CD892B4383800483DE
:10217000CD888586028470BD002C0140003401406A
:102180000040014000440140004801400022028814
:102190001D4B98420ED01D4B98420BD0B0F1804F92
:1021A00008D01B4B984205D01A4B984202D01A4BCC
:1021B000984204D14FF68F731A404B881A43174B3D
:1021C000984207D0164B984204D04FF6FF431A406E
:1021D000CB881A4302808B8883850B8803850A4B42
:1021E00098420BD0094B984208D00E4B984205D02C
:1021F0000D4B984202D00D4B984201D10B7A0386C9
:102200000123838270470000002C0140003401400C
:102210000004004000080040000C00400010004096
:1022200000140040004001400044014000480140CB
:102230004FF6FF71818000210180C18041800172D1
:102240007047000010B540F225510C4800F096F898
:1022500070B10A4800F04EF9C4B22146074800F0B8
:102260004EF900BF4021054800F07BF80128F9D164
:102270004021024800F060F810BD00000038014025
:1022800010B586B0044601210420FFF7A7FB012109
:102290008803FFF7A3FB01210846FFF79FFB4FF4DC
:1022A0000070ADF8140003208DF8160018208DF88A
:1022B000170005A91E48FFF712F84FF48060ADF82B
:1022C000140004208DF8170005A91948FFF707F836
:1022D00001940020ADF80800ADF80A00ADF80C003C
:1022E000ADF810000C20ADF80E0001A9114800F067
:1022F00095F801210F4800F028F840210D4800F022
:102300001BF8012240F225510A4800F061F825200F
:102310008DF8000003208DF801008DF802000120E7
:102320008DF803006846FFF705FB06B010BD0000FE
:10233000000801400038014001F40072B2F5007F4E
:1023400000D100BFCA430280704721B1828942F4A4
:102350000052828104E082894DF6FF731A40828127
:10236000704702460020B1F5007F00D100BF1388FE
:102370000B400BB1012000E00020704770B5024611
:10238000002400230025002040F66A16B14200D147
:1023900000BFC1F3421501F01F03012606FA03F343
:1023A000012D02D19689334006E0022D02D1168A12
:1023B000334001E0968A33400C12012606FA04F4F9
:1023C0001688344013B10CB1012000E0002070BD2C
:1023D000F0B50346002400260025002040F66A17C9
:1023E000B94200D100BF1846C1F3421401F01F06E4
:1023F000012707FA06F5012C01D10C3004E0022C6C
:1024000001D1103000E014301AB107682F43076083
:1024100002E00768AF430760F0BD00002DE9F04718
:1024200086B005460E460024A24600BFA1460027FE
:10243000B08900B100BF2F462C8A4CF6FF700440D3
:10244000F08804432C82AC894EF6F3100440B08827
:1024500031890843718908430443AC81AC8A4FF643
:10246000FF400440B0890443AC8201A8FFF7C6FADC
:102470001F48874202D1DDF810A001E0DDF80CA072
:10248000A88900F4004040B10AEBCA0000EB0A1032
:1024900031684900B0FBF1F807E00AEBCA0000EB35
:1024A0000A1031688900B0FBF1F86420B8FBF0F045
:1024B00004012009642101FB1089A88900F400406F
:1024C00040B1322000EBC900B0FBF1F000F0070092
:1024D000044308E0322000EB09106421B0FBF1F066
:1024E00000F00F0004432C8106B0BDE8F087000027
:1024F0000038014001468888C0F308007047C1F3E6
:1025000008028280704700BFFEE700000FB4054B51
:1025100010B503A9044A029800F01EF810BC5DF83B
:1025200014FB0000652800082C00002002E008C809
:10253000121F08C1002AFAD170477047002001E03D
:1025400001C1121F002AFBD1704700000149086039
:1025500070470000300000202DE9FF4F8DB09B46F2
:102560000F460446002606E025280BD05A460F9950
:102570009047641C761C20780028F5D111B03046B5
:10258000BDE8F08F0025A8460122984900E00543E8
:1025900014F8013F203B02FA03F00842F7D12078FB
:1025A0002E2817D114F8010F45F004052A280ED063
:1025B0006FF02F022078A0F1300109290AD808EB2A
:1025C000880102EB410100EB0108641CF2E757F8B7
:1025D000048B641C20786C280DD004DC4C2812D0AD
:1025E0006A2811D104E074280DD07A280CD10AE0B1
:1025F00045F4001507E0617845F48015814202D169
:10260000641C05F58015641C2078692844D008DC1A
:102610000028B3D0582867D063280FD0642808D189
:102620003AE0702865D0732812D075285AD07828DF
:102630005AD05A460F999047761CD5E017F8040BEC
:102640008DF8000000208DF80100E946012003E02C
:1026500057F8049B4FF0FF3069074FF0000501D495
:102660000AE06D1C45450DDA8542FADB19F80510C4
:102670000029F6D106E06D1C8542FCDB19F8051037
:102680000029F8D12E4404E019F8010B5A460F999D
:1026900090476D1EF8D2A7E00A200021CDE908017D
:1026A000C5F3025002280CD001CFC117021E71F1F0
:1026B00000020CDA0023D0EB030063EB01012D22B2
:1026C00008E0FF1D27F00707F7E80201EEE72A05FB
:1026D00004D52B228DF8282001223CE0EA073AD0CD
:1026E0002022F7E70A2000E010200021CDE90801B0
:1026F00007E01020002145F00405CDE908014FF066
:102700000808C5F30250022810D001CF00214FF075
:10271000000A2A0720D52278702A0DD0DDE908C3E7
:102720008CF0100C5CEA030C0CD015E0FF1D27F0B8
:102730000707F7E80201EAE740228DF828204FF06A
:10274000010A0CE050EA010306D030238DF828304E
:102750008DF82920022292462278582A04D024A2F9
:102760000DF120090B9209E026A2F9E7DDE9082323
:10277000FEF76EF90B9B9B5C09F8013D50EA0102E4
:10278000F4D1ADEB090020300890680701D44FF078
:1027900001080899884503DD0898A8EB000000E0CF
:1027A00000208046002506E00AA85A46405D0F99A1
:1027B00090476D1C761C5545F6DB04E030205A46E8
:1027C0000F999047761CB8F10001A8F10108F5DCDB
:1027D00005E019F8010B5A460F999047761C0899A5
:1027E000481E08900029F4DC641CC4E60928010096
:1027F0003031323334353637383961626364656677
:102800000000000030313233343536373839414238
:1028100043444546000000000146114A12884A43DD
:102820004FF0E0235A6100229A611A46126942F081
:1028300001021A6100BF4FF0E022106900F00102AE
:102840001AB100F48032002AF5D04FF0E02212696C
:1028500022F001024FF0E0231A6100229A617047D2
:102860002A00002070B504460D46E1B20548FFF786
:1028700046FE00BF80210348FFF773FD0028F9D012
:10288000204670BD003801401CB54820FFF7ACF968
:102890004FF4A060FFF786F8FFF72EF84FF41650BC
:1028A000FFF7EEFCFFF764FAFFF7BCFBFEF718FA40
:1028B000FEF75EFA01212648FFF700FC46E00224FD
:1028C0000FE0244850F8240023490988884206DD97
:1028D000204830F824002049088020480480601CEB
:1028E00084B2802CEDDB1D4800881D4991FBF0F07F
:1028F0001C4991FBF0F01C4908601CA0182114230E
:102900001922CDE900100A210020FEF751FF19A07D
:10291000182114232822CDE9001046210020FEF7BB
:1029200047FF16A0182114232822CDE900104621C4
:102930009620FEF73DFF002018210723CDE9001067
:102940000948462102683720FEF765FFB7E7000017
:10295000002C014034080020060000200400002064
:102960000000DD6D00A24A0400000020526F773A9B
:1029700000000000467265713A000000487A0000CD
:102980002DE9F04106460F46FEF737F9041E0D46C5
:1029900018BF0120284320F00040C0F17F6000F103
:1029A000E040C00F0ED0301C18BF0120384320F08B
:1029B0000040C0F17F6000F1E040C00F04BF012083
:1029C000FFF7C4FD20462946BDE8F0810000000065
:1029D0000000000000000000000000003F40000078
:1029E0000000000000003000400030004000000007
:1029F00009000BC03D000BC03D00090018C0244079
:102A00007FE0224031800000180024C01B000D80B0
:102A10003240018003801C4027401C80074000405A
:102A20001000600000000000000000000000000036
:102A300000001F80204040200000402020401F80D8
:102A400000000000090006001F80060009000000C9
:102A5000040004003F800400040000000010006037
:102A60000000000000000000040004000400040056
:102A70000400000000000040000000000000000012
:102A8000002001C006003800400000001F802040E8
:102A9000204020401F800000000010403FC0004048
:102AA0000000000018C021402240244018400000CF
:102AB00010802040244024401B80000002000D00B4
:102AC00011003FC0014000003C80244024402440CD
:102AD000238000001F8024402440344003800000F5
:102AE0003000200027C03800200000001B80244058
:102AF000244024401B8000001C0022C022402240B1
:102B00001F800000000000000840000000000000DE
:102B1000000000000460000000000000000004004D
:102B20000A00110020804040090009000900090046
:102B30000900000000004040208011000A0004004D
:102B40001800200023402400180000001F802040AF
:102B5000274029401F400000004007C039000F00F7
:102B600001C0004020403FC0244024401B800000A2
:102B70001F802040204020403080000020403FC087
:102B8000204020401F80000020403FC024402E40B5
:102B900030C0000020403FC024402E003000000024
:102BA0000F001080204022403380020020403FC0B0
:102BB000040004003FC02040204020403FC020408F
:102BC000204000000060202020203FC02000200086
:102BD00020403FC024400B0030C0204020403FC078
:102BE00020400040004000C03FC03C0003C03C000B
:102BF0003FC0000020403FC00C4023003FC02000E9
:102C00001F802040204020401F80000020403FC007
:102C100024402400180000001F802140214020E0B3
:102C20001FA0000020403FC02440260019C00040E3
:102C300018C0244024402240318000003000204051
:102C40003FC020403000000020003F800040004096
:102C50003F80200020003E0001C007003800200017
:102C6000380007C03C0007C038000000204039C0D1
:102C7000060039C0204000002000384007C038401E
:102C800020000000304021C02640384020C0000015
:102C9000000000007FE040204020000000007000A5
:102CA0000C000380004000000000402040207FE036
:102CB0000000000000002000400020000000000094
:102CC00000100010001000100010001000000000A4
:102CD00040000000000000000000028005400540A8
:102CE00003C0004020003FC00440044003800000B7
:102CF0000000038004400440064000000000038000
:102D0000044024403FC000400000038005400540CF
:102D100003400000000004401FC024402440200065
:102D2000000002E0055005500650042020403FC03E
:102D30000440040003C000400000044027C00040DD
:102D40000000000000100010041027E00000000048
:102D500020403FC00140070004C004402040204004
:102D60003FC000400040000007C0040007C004004E
:102D700003C00000044007C00440040003C000403A
:102D8000000003800440044003800000041007F0AA
:102D900004500440038000000000038004400450FD
:102DA00007F00010044007C00240040004000000C7
:102DB000000006400540054004C00000000004007B
:102DC0001F800440004000000400078000400440D1
:102DD00007C000400400070004C001800600040092
:102DE000060001C0070001C006000000044006C044
:102DF000010006C0044000000410071004E0018038
:102E0000060004000000044005C006400440000025
:102E10000000000004007BE04020000000000000F3
:102E20000000FFF000000000000040207BE00400F4
:102E30000000000040008000400020002000400012
:102E40000000000000000000000000000000000082
:102E50000000000000001FCC000C0000000000007B
:102E60000000080030006000080030006000000032
:102E7000022003FC1E20022003FC1E200220000072
:102E800000000E1811043FFF10840C7800000000B1
:102E90000F0010840F3800C00778188400780000F5
:102EA00000780F8410C411240E9800E400840008F8
:102EB0000800680070000000000000000000000032
:102EC00000000000000007E0181820044002000085
:102ED000000040022004181807E000000000000075
:102EE0000240024001800FF00180024002400000D9
:102EF0000080008000800FF80080008000800000CB
:102F00000001000D000E00000000000000000000A5
:102F10000000008000800080008000800080008031
:102F20000000000C000C0000000000000000000089
:102F30000000000600180060018006001800200054
:102F4000000007F0080810041004080807F000004B
:102F50000000080408041FFC000400040000000036
:102F600000000E0C10141024104411840E0C0000EC
:102F700000000C1810041104110412880C700000D9
:102F8000000000E00320042408241FFC00240000AB
:102F900000001F98108411041104108810700000A4
:102FA000000007F008881104110418880070000060
:102FB00000001C00100010FC13001C00100000009A
:102FC00000000E3811441084108411440E380000A3
:102FD00000000700088C10441044088807F0000027
:102FE000000000000000030C030C000000000000C3
:102FF00000000000000101060000000000000000C9
:1030000000000080014002200410080810040000A5
:1030100002200220022002200220022002200000C2
:103020000000100408080410022001400080000085
:1030300000000E001200100C106C10800F00000039
:1030400003E00C1813E4142417C4082807D0000068
:103050000004003C03C41C40074000E4001C0004C2
:1030600010041FFC1104110411040E8800700000EC
:1030700003E00C1810041004100410081C100000C9
:1030800010041FFC100410041004080807F00000CE
:1030900010041FFC1104110417C4100408180000C8
:1030A00010041FFC1104110017C0100008000000DC
:1030B00003E00C181004100410441C7800400000B9
:1030C00010041FFC10840080008010841FFC10047A
:1030D0000000100410041FFC100410040000000085
:1030E00000030001100110011FFE1000100000007D
:1030F00010041FFC110403801464181C1004000049
:1031000010041FFC1004000400040004000C000064
:1031100010041FFC1F0000FC1F001FFC1004000017
:1031200010041FFC0C04030000E010181FFC10002A
:1031300007F00808100410041004080807F0000045
:1031400010041FFC10841080108010800F000000FD
:1031500007F0081810241024101C080A07F20000B9
:1031600010041FFC1104110011C011300E0C0004DA
:1031700000000E1C11041084108410441C38000040
:103180001800100010041FFC1004100018000000AC
:1031900010001FF810040004000410041FF81000B1
:1031A00010001E0011E0001C007013801C001000B5
:1031B0001FC0103C00E01F0000E0103C1FC00000DA
:1031C0001004180C163401C001C01634180C100479
:1031D00010001C00130400FC13041C00100000006D
:1031E0000804101C1064108413041C041018000040
:1031F0000000000000007FFE40024002400200008C
:10320000000030000C0003800060001C0003000080
:1032100000004002400240027FFE0000000000006B
:10322000000000002000400040004000200000009E
:103230000001000100010001000100010001000186
:1032400000004000400020000000000000000000DE
:1032500000000098012401440144014400FC0004E2
:1032600010001FFC008801040104008800700000A9
:1032700000000070008801040104010400880000BF
:103280000000007000880104010411081FFC000404
:10329000000000F8014401440144014400C800005A
:1032A0000000010401040FFC1104110411001800B6
:1032B000000000D601290129012901C901060000E9
:1032C00010041FFC008401000100010400FC000444
:1032D00000000104190419FC0004000400000000AF
:1032E0000000000300010101190119FE00000000A7
:1032F00010041FFC0024004001B4010C0104000074
:103300000000100410041FFC000400040000000072
:10331000010401FC0104010001FC0104010000FCA6
:10332000010401FC008401000100010400FC000410
:10333000000000F8010401040104010400F8000089
:10334000010101FF008501040104008800700000F4
:1033500000000070008801040104010501FF000164
:103360000104010401FC008401040100018000004B
:10337000000000CC01240124012401240198000054
:1033800000000100010007F8010401040000000032
:10339000010001F8000400040004010801FC00041D
:1033A000010001800170000C00100160018001002B
:1033B00001F0010C003001C00030010C01F00100EF
:1033C00000000104018C00740170018C01040000F4
:1033D000010101810171000E0018016001800100EE
:1033E00000000184010C013401440184010C00003F
:1033F000000000000000000001003EFC400240020E
:103400000000000000000000FFFF000000000000BE
:103410000000400240023EFC0100000000000000ED
:10342000000060008000800040004000200020007C
:10343000000000000000000000000000000000008C
:10344000000000000000000000000000000000007C
:10345000000000000000000000000000000000006C
:103460000000000F80380FFE380F80380000000089
:10347000000000000000000000000000000001004B
:10348000000600000C0000380000310000060000BB
:103490000C000038000030000000000000000000B8
:1034A00061800067F807F980006180006180006139
:1034B000800061800067F807F980006180000000EB
:1034C00000000000000001C0E003E0F00630080446
:1034D00018081FFFFE040E080787F00381E00000B4
:1034E0000000000001F000060C00040408060C7047
:1034F00001F9C0000E00003BE000EC1807080804CA
:103500000C180003E00000000001E00007F003F8E1
:1035100018041C0804170807E1D003C0E00023B01A
:10352000003C08002008000010000000000000011E
:1035300000003100003200001C000000000000000C
:10354000000000000000000000000000000000007B
:10355000000000000000000000000000000000006B
:103560007F0001FFC00780F00C001810000420004D
:10357000020000000000002000021000040C0018EF
:103580000780F001FFC0007F000000000000000085
:103590000000000000000000000000004200006683
:1035A00000006600003C0000180003FFC000180087
:1035B000003C0000660000660000420000000000C1
:1035C000080000080000080000080000080001FFD3
:1035D000C000080000080000080000080000080003
:1035E00000000000000100003100003200001C005B
:1035F00000000000000000000000000000000000CB
:1036000000000000000000000800000800000800A2
:103610000008000008000008000008000008000082
:10362000080000080000000000000000000000008A
:1036300038000038000038000000000000000000E2
:10364000000000000000000000000000000000007A
:10365000000600001C000070000180000E00003811
:103660000000C0000700001C000030000000000047
:10367000000000007F8001FFE00380700600180456
:10368000000804000806001803807001FFE0007FB6
:103690008000000000000000000001000801000898
:1036A00001000803FFF807FFF80000080000080009
:1036B000000800000000000000000001C03802C047
:1036C00058040098040118040218040418061C1871
:1036D00003F81801E0F800000000000000000001FD
:1036E000C0E003C0F0040008040808040808061835
:1036F0000803F41801E7F00001E0000000000000FA
:10370000000000000300000D000011000061000037
:10371000810803010807FFF80FFFF8000108000106
:10372000080000000000000000E007FCD0060808C8
:10373000061008061008061008061838060FF006CE
:1037400007C0000000000000000000003F8001FFF3
:10375000E00384300208180410080410080410085C
:10376000071810030FF00007C00000000000000061
:10377000000003C0000700000600000600F806076E
:10378000F806180006E00007000006000000000030
:1037900000000001E1E003F7F0063410041808040B
:1037A0001808040C08040C0806161803F3F001C1ED
:1037B000E000000000000000F80003FC30030638C1
:1037C0000402080402080402080404100308F001BB
:1037D000FFC0007F000000000000000000000000AB
:1037E00000000000000000007038007038007038E1
:1037F00000000000000000000000000000000000C9
:10380000000000000000000000000000301A00303E
:103810001C0000000000000000000000000000008C
:10382000000000000000000800001400002200005A
:1038300041000080800100400200200400100800C8
:10384000080000000000000021000021000021000D
:1038500000210000210000210000210000210000C3
:10386000210000210000000000000000000008000E
:103870000804001002002001004000808000410088
:1038800000220000140000080000000000000003F7
:10389000C00004C000040000080038080F38080801
:1038A000380810000C300007E00003C000000000E2
:1038B000000000003F8000FFE0038070020F100650
:1038C000708804C088048308047F8802C0900301C4
:1038D0002000FE400000080000180001F8003E082B
:1038E00001C20007020007E20000FE00001FC8003E
:1038F00001F800003800000804000807FFF807FF7F
:10390000F804080804080804080804080806180849
:1039100003F41801E7F00001E000000000000000DF
:103920003F8001FFE00380700200180400080400DB
:10393000080400080400100600200780C0000000F2
:1039400004000807FFF807FFF80400080400080453
:10395000000804001802001003807001FFE0007FDF
:103960008000000004000807FFF807FFF8040808BB
:10397000040808040808040808043E0804000806AF
:10398000001801006000000004000807FFF807FFAE
:10399000F8040808040800040800040800043E00B5
:1039A000060000060000018000000000000000008A
:1039B0003F8001FFE0038070060018040008040245
:1039C000080402080203F00783F00002000002006E
:1039D00004000807FFF807FFF804080800080000C3
:1039E000080000080000080004080807FFF807FFA7
:1039F000F8040008000000000000040008040008AB
:103A000004000807FFF807FFF80400080400080492
:103A10000008000000000000000000000006000098
:103A20000700000104000104000104000307FFFE79
:103A300007FFFC0400000400000400000400080765
:103A4000FFF807FFF8040C08001800003E0004C748
:103A5000800503C80600F8040038040018000008B8
:103A600004000807FFF807FFF8040008000008003A
:103A7000000800000800000800000800001800000E
:103A80006000000004000807FFF807800807FC003A
:103A9000007FC00003F80007C00078000780080717
:103AA000FFF807FFF804000804000807FFF8070004
:103AB0000803C00000E000003800001E00000700FE
:103AC0000001C00400F007FFF8040000000000003F
:103AD0007F8001FFE00380700600180400080400E6
:103AE0000806001803003001FFE0007F800000009E
:103AF00004000807FFF807FFF804040804040004A2
:103B00000400040400040400060C0003F80001F0A3
:103B100000000000000000007F8001FFE0038070D3
:103B20000600880400880400C806003C03003E012B
:103B3000FFE6007F8400000004000807FFF807FF8D
:103B4000F8040808040800040C00040F00040BC06B
:103B50000610F003F03801E0080000080000000142
:103B6000E0F803F030063010041808041808040CBC
:103B700008040C080206180207F00781E0000000A4
:103B80000180000600000400000400000400080793
:103B9000FFF807FFF8040008040000040000060016
:103BA0000001800004000007FFE007FFF004001898
:103BB00000000800000800000800000800000804D9
:103BC000001007FFE004000004000006000007E00A
:103BD0000007FE00041FE00001F80000380001E0CB
:103BE000043E0007C00006000004000004000007B7
:103BF000E00007FFC0041FF80007C007F80007FF38
:103C000080043FF80007C004F8000700000400002B
:103C100000000004000806001807C07805F1C8007D
:103C20003E00001F800463E80780F80600180400C7
:103C30000800000004000006000007800007E008FC
:103C4000047C08001FF80007F800180804E00807C3
:103C5000000006000004000000000001000806004B
:103C6000380400F80403E8040F08047C0805F00891
:103C700007C00807001804006000000000000000F2
:103C800000000000000000000000003FFFFE2000D8
:103C9000022000022000022000022000020000009A
:103CA00000000000000008000007000000C0000045
:103CB00038000006000001C000003000000E0000C7
:103CC00001000000000000000000200002200002AF
:103CD0002000022000022000023FFFFE0000000042
:103CE00000000000000000000000000000000000D4
:103CF000000800001000003000002000003000002C
:103D0000100000080000000000000000000001009A
:103D1000000100000100000100000100000100009E
:103D2000010000010000010000010000010000018D
:103D30000000000000000000002000002000001033
:103D40000000100000000000000000000000000063
:103D5000000000000000000000F00019F8001B182F
:103D6000002208002608002408002410003FF80064
:103D70001FF800000800001800000004000007FF02
:103D8000F80FFFF0001818001008002008002008A5
:103D9000003018001FF0000FC000000000000000FD
:103DA00007C0001FF0001830002008002008002085
:103DB00008003C08001C100000600000000000002B
:103DC0000000000007C0001FF000381800200800A5
:103DD000200800200804101007FFF80FFFF0000073
:103DE000100000000000000000000007C0001FF0ED
:103DF00000123000221800220800220800320800B9
:103E00001E10000E20000000000000002000002016
:103E10000800200801FFF803FFF806200804200826
:103E2000042008072000030000000000000000003C
:103E3000000E000E6E001FF30031B10020B1002013
:103E4000B1003191001F13002E1E00200E00300023
:103E500000000004000807FFF80FFFF8001008003A
:103E60002000002000002008003FF8001FF800009C
:103E700008000000000000000000002008002008EA
:103E8000002008063FF8063FF80000080000080080
:103E9000000800000000000000000000000000001A
:103EA00003000003002001002001002003063FFE64
:103EB000063FFC00000000000000000000000004BD
:103EC000000807FFF80FFFF8000188000300002F2B
:103ED000C00038F80020380020080000080000006A
:103EE00000000000000004000804000804000807A7
:103EF000FFF80FFFF80000080000080000080000AD
:103F000000000000002008003FF8003FF800100803
:103F1000002000003FF8003FF800100800200000DB
:103F20003FF8003FF8000008000000002008003FB4
:103F3000F8003FF8001008001000002000002008E2
:103F4000003FF8001FF8000008000000000000001B
:103F500007C0000FF00018300030080020080020D3
:103F600008003008001830000FF00007C000000003
:103F7000000000002001003FFF003FFF0010110083
:103F80002009002008002008003038001FF0000F32
:103F9000C00000000000000007C0001FF00038183B
:103FA000002008002008002009001011001FFF0059
:103FB0003FFF000001000000002008002008002052
:103FC00008003FF8003FF80008080010080020082B
:103FD0000020000030000030000000000000000061
:103FE0000000000C78001E18003308002308002190
:103FF000080021880021980030F00038600000009F
:1040000000000000200000200000200000FFF0035E
:10401000FFF8002008002008002008000030000001
:1040200000000000000000002000003FF0007FF8CA
:10403000000018000008000008002010003FF800F1
:104040007FF00000100000000000000020000030A1
:1040500000003C00003F800023F00000780000706A
:10406000002380003C000030000020000020000001
:104070003C00003FE00023F80000E0002700003E85
:1040800000003FE00021F80001E0003E00002000B9
:10409000000000002008002008003838003E6800BA
:1040A00027800003C8002CF80038380020180020B2
:1040B00008000000000000002000003003003C0168
:1040C000003F830023EC000070002380003C0000D0
:1040D0002000002000000000000000000000003868
:1040E000080020380020F80023E8002F88003E0850
:1040F00000380800201800007000000000000000D8
:104100000000000000000000000000000800001493
:10411000001FF7FC30000620000200000000000035
:10412000000000000000000000000000000000008F
:104130000000FFFFFF000000000000000000000082
:104140000000000000000000000020000230000617
:104150001FF7FC0014000008000000000000000031
:1041600000000000000000000000001800006000D7
:104170000040000040000020000010000008000087
:104180000400000400000C0000100000C6D5000070
:10419000000000E0380000783C00003C7800003C63
:1041A00070C0001CE1E01FFFFFF0001CE3000E1CCC
:1041B000E7C0079CE78003DCEF0003DCEE0001DCD6
:1041C000FC60009CF9F07FFFFFF80000000001C0D8
:1041D0000E0001FFFF0001C00E0001C00E0001C073
:1041E0000E0001FFFE0001C00E0001C00E0001C064
:1041F0000E0001FFFE0001C00E0001C00E00000015
:104200000000D6D00000000000070000000780007A
:104210000007000000070000000700000007018001
:104220001FFFFFE01FFFFFE01E0701C01E0701C0C8
:104230001E0701C01E0701C01E0701C01E0701C0E6
:104240001FFFFFC01FFFFFC01E0701C01C0701802A
:104250000007000000070000000700000007000042
:104260000007000000070000000700000007000032
:104270000007000000000000BFC6000000000000B2
:104280000780003C07C001FC07803FE0078039C180
:10429000C78001C0E78001C0F78001C0778001DEE0
:1042A00077807FFE078001C0078003C3C78003E1DA
:1042B000E78003F8F78007FCE7F00FDE67F80FDC14
:1042C00007F81FC0FF801DDFE78039CC078071C071
:1042D000078061C0078001C0078001C0078001E03E
:1042E000078001E0078001C0070000000000BCBC9F
:1042F000000000000380300003C03C0003C03C000D
:1043000003C0380003C0380003C0386003F838F039
:104310007FFFFFF003C0380003C0380003C038003F
:1043200003DC39C003FFFFE007E383C03FC183C064
:104330007FC1C3803BC1C78003C0EF0003C0EF0053
:1043400003C07E0003C07C0003C07C0003C0FE00ED
:104350003BC3EF803F8787F80FBF03F8077800E083
:1043600000000000C4EA0000000000C0000001F0EE
:10437000000001E0000003C000C003C001E007FF2F
:10438000FFF00703C0000E03C0001E03C0003C0383
:10439000C3007303C78063FFFFC00383C0000383B0
:1043A000C0000383C0000383C0000383C060038395
:1043B000C0F07FFFFFF80003C0000003C00000034F
:1043C000C0000003C0000003C0000003C0000003E1
:1043D000C0000003C00000000000D4C200000000C4
:1043E0000000000000E0070000FFFF8000F00780F1
:1043F00000F0070000F0070000F0070000F00700E1
:1044000000FFFF0000FFFF0000F0070000F00700C2
:1044100000F0070000F0070000E0070000FFFF00C9
:1044200000E0070000E0070000E0070001E00700EF
:1044300001C0070001C00700038007000780F700E4
:104440000F007F001E001F0038001C00000000004D
:10445000C8D500000000000000000300030003FFB7
:10446000FF8003FFFF8003800700038007000380B5
:104470000700038007000380070003800700038014
:1044800007000380070003FFFF000380070003808D
:1044900007000380070003800700038007000380F4
:1044A000070003800700038007000380070003FF65
:1044B000FF0003800700038007000380070003005C
:1044C000000000000000D0C7000000000000000055
:1044D0000380070003FFFF800380070003800700BD
:1044E0000380070003FFFF0003800700038007002D
:1044F00003FFFF0003FFFF00038707000387C000DF
:1045000003C7810003C7838007FFFFC00707800040
:104510000F0780001E0786001C078F003BFFFF80EF
:104520007007800000078000000780E0000781F02E
:104530007FFFFFF80000000000000000C6DA000066
:10454000000006000000079E0000079E7FF0079E07
:104550007FF0079FF8F03FFFF8F01F9E78F0079E6E
:1045600078F0079E78F007FE7FF0079E78F0079EB0
:1045700078F0079E70F007FE70F0079E70F0079EBF
:104580007FF0079FFFF03FFFF0F0119070F003DC29
:10459000F0F003DEE0F0078FE0F00F0FE0F00E0721
:1045A000C0F01C038FF0380F03E0201C01C0000096
:1045B00000000000D4450008000000203400000086
:1045C0002C2500080846000834000020040E0000D6
:1045D0003C25000800000000000000000000000072
:1045E0000102030401020304060708090204060885
:1045F0000000FFFF000000000000000000000000BD
:084600000000000000000000B2
:0400000508000131BD
:00000001FF
